:100000000C945E000C9486000C9486000C94860080
:100010000C9486000C9486000C9486000C94860048
:100020000C9486000C9486000C9486000C94860038
:100030000C9486000C94E0000C9486000C948600CE
:100040000C94E6010C9486000C9410050C94420567
:100050000C9486000C9486000C9486000C94860008
:100060000C9486000C948600000000080002010039
:100070000003040700000000000000000102040863
:100080001020408001020408102001020408102002
:10009000040404040404040402020202020203032E
:1000A0000303030300000000250028002B000000CC
:1000B0000000240027002A00D400720511241FBE6E
:1000C000CFEFD8E0DEBFCDBF12E0A0E0B1E0E2E8C4
:1000D000FFE002C005900D92A238B107D9F723E0E6
:1000E000A2E8B2E001C01D92AA36B207E1F710E023
:1000F000CCEBD0E004C02297FE010E948D06C83BE5
:10010000D107C9F70E94B6050C94BF070C940000F4
:1001100040ED57E060E070E089E892E00E94320133
:1001200020E835E240E050E069EC72E089E892E0D6
:100130000E94450189E892E00E942F0167E072E089
:100140008091BA029091BB020E9403066AE070E0BF
:1001500080E090E00E945F0241E060E089E892E088
:100160000E94B00161E083E00E945C0326E040E869
:1001700055E260E070E089EC92E00C94AE04E0910E
:100180008202F0E0EA5FFE4F608170E083E00E944F
:10019000D402809182028F5F8093820264E070E0DB
:1001A00080E090E00C945F020F9306E024E045E0CD
:1001B00061E083E892E00E94CB010F9108950895D9
:1001C0001F920F920FB60F9211242F933F934F93CC
:1001D0005F936F937F938F939F93AF93BF93EF93AF
:1001E000FF93E0910502F09106020995FF91EF91CE
:1001F000BF91AF919F918F917F916F915F914F913F
:100200003F912F910F900FBE0F901F9018950F9355
:100210001F93CF93DF93EC01662359F00E943002C5
:1002200069837A838B839C83DF91CF911F910F9198
:1002300008950E94300209811A812B813C81601B44
:10024000710B820B930B613271058105910530F7BB
:1002500063E070E080E090E00E945F02EACF60E03F
:100260000C940701FC0113AA14AA15AA16AA11825C
:10027000128213821482411551056105710521F026
:10028000CB01BA010C945F020895FB01BA01A901E8
:10029000DC01D296FC93EE93D19726E0CF010C942B
:1002A000AE041F93CF93DF93EC01162F69E172E048
:1002B00089A99AA90E9403064AE050E0612F89A902
:1002C0009AA90E94610660E272E089A99AA90E9437
:1002D000030662E370E080E090E0DF91CF911F9130
:1002E0000C945F021F93CF93DF93EC01162F8D8147
:1002F000882389F189A99AA9DC01ED91FC910480F8
:10030000F581E02D0995892BA9F307C02637310522
:1003100019F12835310509F41D8289A99AA9DC0152
:10032000ED91FC910480F581E02D099518161906D0
:1003300094F489A99AA9DC01ED91FC910680F781DA
:10034000E02D09959C01332723363105F9F6612FFD
:10035000CE010E94510183E6DF91CF911F91089554
:100360000F931F93CF93DF931F92CDB7DEB78C010E
:10037000662349F081E0F801858360E0C801498384
:100380000E9472014981F80145830F90DF91CF915E
:100390001F910F9108950F931F93CF93DF93EC015B
:1003A0006A834B832C830D8388E1689F800111242D
:1003B000C8010E94910699838883A80160E070E0DB
:1003C000DF91CF911F910F910C94B8071F920F925C
:1003D0000FB60F9211242F933F938F939F93AF9358
:1003E000BF938091C1029091C202A091C302B091CB
:1003F000C4023091C00223E0230F2D3720F4019670
:10040000A11DB11D05C026E8230F0296A11DB11D37
:100410002093C0028093C1029093C202A093C302B2
:10042000B093C4028091C5029091C602A091C70208
:10043000B091C8020196A11DB11D8093C502909391
:10044000C602A093C702B093C802BF91AF919F911B
:100450008F913F912F910F900FBE0F901F90189585
:100460002FB7F8946091C1027091C2028091C302CB
:100470009091C4022FBF08953FB7F8948091C502B0
:100480009091C602A091C702B091C80226B5A89B60
:1004900005C02F3F19F00196A11DB11D3FBF662772
:1004A000782F892F9A2F620F711D811D911D42E0B7
:1004B000660F771F881F991F4A95D1F708958F926D
:1004C0009F92AF92BF92CF92DF92EF92FF926B0119
:1004D0007C010E943C024B015C01C114D104E10487
:1004E000F104F1F00E9468060E943C026819790943
:1004F0008A099B09683E73408105910570F321E0EC
:10050000C21AD108E108F10888EE880E83E0981E2F
:10051000A11CB11CC114D104E104F10429F7DDCF01
:10052000FF90EF90DF90CF90BF90AF909F908F9013
:100530000895789484B5826084BD84B5816084BD5B
:1005400085B5826085BD85B5816085BDEEE6F0E04C
:10055000808181608083E1E8F0E0108280818260A8
:100560008083808181608083E0E8F0E08081816029
:100570008083E1EBF0E0808184608083E0EBF0E059
:10058000808181608083EAE7F0E0808184608083FD
:1005900080818260808380818160808380818068A7
:1005A00080831092C10008951F93CF93DF93182F7B
:1005B000EB0161E00E945C03209711F460E004C04D
:1005C000CF3FD10539F461E0812FDF91CF911F91A9
:1005D0000C949503E12FF0E0E859FF4FE491E330EC
:1005E000F9F048F4E130B9F0E230A1F584B5806269
:1005F00084BDC8BD34C0E730E9F0E83019F1E4301B
:1006000049F580918000806280938000D0938B00B8
:10061000C0938A0024C084B5806884BDC7BD1FC054
:1006200080918000806880938000D0938900C0937F
:10063000880015C08091B00080688093B000C0939E
:10064000B3000DC08091B00080628093B000C09371
:10065000B40005C0C038D1050CF0B5CFAFCFDF91E5
:10066000CF911F910895833081F028F4813099F063
:100670008230A1F008958730A9F08830B9F0843035
:10068000D1F4809180008F7D03C0809180008F77AE
:1006900080938000089584B58F7702C084B58F7DE4
:1006A00084BD08958091B0008F7703C08091B00021
:1006B0008F7D8093B0000895CF93DF9390E0FC018D
:1006C000E458FF4F2491FC01E057FF4F84918823A9
:1006D00049F190E0880F991FFC01E255FF4FA59169
:1006E000B4918C559F4FFC01C591D4919FB7611176
:1006F00008C0F8948C91209582238C938881822362
:100700000AC0623051F4F8948C91322F30958323D3
:100710008C938881822B888304C0F8948C91822BDF
:100720008C939FBFDF91CF9108950F931F93CF9329
:10073000DF931F92CDB7DEB7282F30E0F901E859DB
:10074000FF4F8491F901E458FF4F1491F901E057EC
:10075000FF4F04910023C9F0882321F069830E9490
:1007600033036981E02FF0E0EE0FFF1FEC55FF4FE0
:10077000A591B4919FB7F8948C91611103C0109525
:10078000812301C0812B8C939FBF0F90DF91CF916C
:100790001F910F910895FC01818D228D90E0805C66
:1007A0009F4F821B91098F7399270895FC01918DAA
:1007B000828D981731F0828DE80FF11D858D90E0C4
:1007C00008958FEF9FEF0895FC01918D828D98170A
:1007D00061F0828DDF01A80FB11D5D968C91928D25
:1007E0009F5F9F73928F90E008958FEF9FEF089522
:1007F00088E695E0892B49F080E090E0892B29F08C
:100800000E94680581110C9400000895FC01848DFC
:10081000DF01A80FB11DA35ABF4F2C91848D90E02A
:1008200001968F739927848FA689B7892C93A08905
:10083000B1898C9180648C93938D848D981306C0BC
:100840000288F389E02D80818F7D80830895CF9386
:10085000DF93EC01888D8823C9F0EA89FB898081C8
:1008600085FD05C0A889B9898C9186FD0FC00FB69A
:1008700007FCF5CF808185FFF2CFA889B9898C91DB
:1008800085FFEDCFCE010E940604E7CFDF91CF9127
:100890000895CF92DF92FF920F931F93CF93DF9330
:1008A0001F92CDB7DEB76C0181E0D60158968C93CC
:1008B00058975B969C915B975C968C915C9798138C
:1008C00007C05096ED91FC915197808185FD2EC017
:1008D000F601038D10E00F5F1F4F0F731127F02EED
:1008E000F601848DF81211C00FB607FCF9CFD601BE
:1008F0005096ED91FC915197808185FFF1CFC60113
:1009000069830E9406046981EBCF838DE80FF11D96
:10091000E35AFF4F6083D6015B960C935B97529628
:10092000ED91FC915397808180620CC0D601569660
:10093000ED91FC91579760835096ED91FC91519702
:1009400080818064808381E090E00F90DF91CF917F
:100950001F910F91FF90DF90CF900895BF92CF929B
:10096000DF92EF92FF92CF93DF93EC016A017B015C
:10097000B22EE889F98982E08083411581EE58071B
:1009800061057105A1F060E079E08DE390E0A701D9
:1009900096010E9469062150310941095109569575
:1009A000479537952795211580E1380798F0E88914
:1009B000F989108260E874E88EE190E0A701960161
:1009C0000E94690621503109410951095695479500
:1009D00037952795EC85FD853083EE85FF8520834F
:1009E000188EEC89FD89B082EA89FB89808180615B
:1009F0008083EA89FB89808188608083EA89FB891A
:100A0000808180688083EA89FB8980818F7D8083F3
:100A1000DF91CF91FF90EF90DF90CF90BF9008953E
:100A20001F920F920FB60F9211242F938F939F93C3
:100A3000EF93FF93E091D902F091DA028081E09187
:100A4000DF02F091E00282FD12C090818091E2020B
:100A50008F5F8F732091E302821751F0E091E202E1
:100A6000F0E0E753FD4F958F8093E20201C0808153
:100A7000FF91EF919F918F912F910F900FBE0F904B
:100A80001F9018951F920F920FB60F9211242F935B
:100A90003F934F935F936F937F938F939F93AF9306
:100AA000BF93EF93FF9389EC92E00E940604FF91BD
:100AB000EF91BF91AF919F918F917F916F915F91D6
:100AC0004F913F912F910F900FBE0F901F9018954F
:100AD00089EC92E00E94CB0321E0892B09F420E00D
:100AE000822F08951092CC021092CB0288EE93E0F0
:100AF000A0E0B0E08093CD029093CE02A093CF020D
:100B0000B093D00285E792E09093CA028093C90225
:100B100085EC90E09093D6028093D50284EC90E02F
:100B20009093D8028093D70280EC90E09093DA0201
:100B30008093D90281EC90E09093DC028093DB02F9
:100B400082EC90E09093DE028093DD0286EC90E0F0
:100B50009093E0028093DF021092E2021092E3028F
:100B60001092E4021092E502089508950E949902FD
:100B70000E94B5050E948800C8EFD3E00E94BF0024
:100B80002097E1F30E94F803F9CFCF92DF92EF9222
:100B9000FF920F931F93CF93DF937C016A01EB01C8
:100BA00000E010E00C151D0571F06991D701ED9181
:100BB000FC910190F081E02DC7010995892B19F076
:100BC0000F5F1F4FEFCFC801DF91CF911F910F91A2
:100BD000FF90EF90DF90CF9008956115710581F03F
:100BE000DB010D900020E9F7AD0141505109461B92
:100BF000570BDC01ED91FC910280F381E02D09940B
:100C000080E090E008950C94ED058F929F92AF9252
:100C1000BF92DF92EF92FF920F931F93CF93DF93D8
:100C2000CDB7DEB7A1970FB6F894DEBF0FBECDBF2C
:100C30007C01F42FD52ECB0119A2223008F42AE032
:100C40008E010F5D1F4F822E912CA12CB12C6F2F86
:100C50007D2DA50194010E946906F22FD32ECA01B1
:100C6000015011096A3014F4E0E301C0E7E3E60F34
:100C7000D801EC93232B242B252B49F7B801C7016E
:100C80000E94ED05A1960FB6F894DEBF0FBECDBF52
:100C9000DF91CF911F910F91FF90EF90DF90BF9068
:100CA000AF909F908F9008952115310541F4DC019C
:100CB000ED91FC910190F081E02D642F09940C944A
:100CC00005069A01462F50E060E070E00C9454064F
:100CD0000895A1E21A2EAA1BBB1BFD010DC0AA1F7D
:100CE000BB1FEE1FFF1FA217B307E407F50720F095
:100CF000A21BB30BE40BF50B661F771F881F991F10
:100D00001A9469F760957095809590959B01AC0158
:100D1000BD01CF010895EE0FFF1F0590F491E02D66
:100D20000994CF93DF938230910510F482E090E034
:100D3000E0916803F091690320E030E0A0E0B0E0CA
:100D4000309739F14081518148175907B8F0481759
:100D5000590771F482819381109729F013969C931F
:100D60008E9312972CC0909369038093680327C0D9
:100D70002115310531F04217530718F0A901DB01A5
:100D800001C0EF019A01BD01DF010280F381E02D76
:100D9000D7CF21153105F9F0281B390B2430310547
:100DA00080F48A819B816115710521F0FB01938399
:100DB000828304C09093690380936803FE01329696
:100DC00044C0FE01E20FF31F819391932250310939
:100DD000398328833AC02091660330916703232B1F
:100DE00041F4209102013091030130936703209375
:100DF000660320910001309101012115310541F474
:100E00002DB73EB74091040150910501241B350BCD
:100E1000E0916603F0916703E217F307A0F42E1B3D
:100E20003F0B2817390778F0AC014E5F5F4F24174E
:100E3000350748F04E0F5F1F5093670340936603DA
:100E40008193919302C0E0E0F0E0CF01DF91CF9178
:100E50000895CF93DF93009709F487C0FC01329780
:100E600013821282C0916803D0916903209781F4A4
:100E700020813181280F391F80916603909167038B
:100E80008217930779F5F0936703E09366036DC0CB
:100E9000DE0120E030E0AE17BF0750F412964D910E
:100EA0005C9113979D014115510509F1DA01F3CFCA
:100EB000B383A28340815181840F951F8A179B07BA
:100EC00071F48D919C911197840F951F02969183D7
:100ED000808312968D919C91139793838283211521
:100EE000310529F4F0936903E09368033EC0D9010A
:100EF0001396FC93EE9312974D915D91A40FB51F3D
:100F0000EA17FB0779F480819181840F951F02967F
:100F1000D90111969C938E938281938113969C9311
:100F20008E931297E0E0F0E08A819B81009719F0A0
:100F3000FE01EC01F9CFCE01029628813981820FA2
:100F4000931F20916603309167032817390769F4CE
:100F5000309729F4109269031092680302C013823B
:100F60001282D0936703C0936603DF91CF910895F7
:100F7000DC0101C06D9341505040E0F70895F894B2
:020F8000FFCFA1
:100F820000006A03800000072529343F4A55606B40
:100F920076808A949EA7B0B8C0C8CFD6DCE2E7ECD0
:100FA200F0F3F6F9FBFCFDFEFEFEFDFCFAF9F7F4A8
:100FB200F2EFECE9E6E3DFDCD8D4D0CDC9C5C1BE9F
:100FC200BAB6B2AFABA8A4A19D9A9793908D8A8727
:100FD20084817E7C797674716F6D6A686664615F04
:100FE2005D5B5957565452504F4D4B4A4847454402
:100FF2004341403F3D3C3B3A393736353433323159
:10100200302F2E2D2C2C2B2A292827272625242445
:101012002322222120201F1E1E1D1D1C1C1B1B1AE9
:10102200191918181717171616151514141413135F
:1010320012121211111010100F0F0F0E0E0E0D0DB5
:101042000D0D0C0C0C0B0B0B0B0A0A0A0A090909F1
:10105200090808080807070707070606060606051F
:101062000505050504040404040403030303030340
:101072000202020202020201010101010101000059
:101082000000000000DF00564D4450565F317C31B5
:101092005F564D4450560D0A00564D4450435F0072
:1010A2005F564D4450430D0A004572726F723A20EA
:1010B200417474656D707420746F2073657420615F
:1010C20020726561642D6F6E6C7920766172696140
:1010D200626C65206F72206461746120747970653E
:1010E200206E6F7420737570706F727465640D0A70
:1010F20000000000004904C505CB03E403D6032722
:021102000400E7
:00000001FF
