:100000000C9464000C94B60B0C94DD0B0C948C00D7
:100010000C948C000C948C000C948C000C948C0030
:100020000C948C000C948C000C948C000C948C0020
:100030000C948C000C94DA0A0C948C000C948C00B8
:100040000C94040C0C948C000C94F80E0C942A0F55
:100050000C948C000C948C000C948C000C948C00F0
:100060000C948C000C948C0000000008000201002D
:100070000003040700000000000000000102040863
:100080001020408001020408102001020408102002
:10009000040404040404040402020202020203032E
:1000A00003030303000000002300260029000000D2
:1000B0000000250028002B0000000000240027007D
:1000C0002A000307C4085A0F11241FBECFEFD8E03F
:1000D000DEBFCDBF12E0A0E0B1E0E0E4F4E202C098
:1000E00005900D92AE39B107D9F726E0AEE9B2E03E
:1000F00001C01D92AC32B207E1F710E0C8ECD0E0CD
:1001000004C02297FE010E94DD10C23CD107C9F74E
:100110000E949E0F0C941E120C940000FC01858519
:1001200096850895CF93DF9300D000D000D0CDB74F
:10013000DEB7AB011C821D821E82DC01ED91FC91B9
:100140000190F081E02D19821A821B829E012F5F9F
:100150003F4FBE016C5F7F4F099526960FB6F8940E
:10016000DEBF0FBECDBFDF91CF91089581E08093B8
:100170002405089580E991E00895219A089540EDBD
:1001800057E060E070E085E495E00E94A90920E076
:1001900032EC41E050E06BE875E085E495E00E94C8
:1001A000BC0985E495E00E94A60961E171E08091B7
:1001B0007605909177050E94EB0F6AE070E080E091
:1001C00090E00E947D0C41E060E085E495E00E94B3
:1001D000270A80EC92E00E94BD0A8091B002811152
:1001E00045C01092A2021092A1028FEF8093A50247
:1001F0008093A6028093A7028093A8028093A9020D
:100200008093AA0281E08093AB021092AD0210921B
:10021000AC021092A4021092A30280913605909134
:100220003705892B31F48FE992E09093370580935D
:100230003605E0913405F0913505309721F08FE9CE
:1002400092E0958384838FE992E0909335058093C3
:1002500034051092AF021092AE0287E292E09093C2
:10026000A00280939F0281E08093B00220E030E002
:1002700040EC50E066EC72E08FE992E00E94890861
:1002800062E08EE00E941B0D62E08FE00E941B0D79
:1002900062E082E00E941B0D62E083E00E941B0D81
:1002A00042E050E065E272E080E00E94960B42E09E
:1002B00050E06DE272E081E00E94960B4AE151E469
:1002C00060E070E08CE795E00E94690B2FEF3FEF54
:1002D000A90166EB70E08CE795E00C94790BAF9286
:1002E000BF92CF92DF92EF92FF920F931F93CF9323
:1002F000DF93E82E0E944E0CF12CE701CC0FDD1F9E
:10030000CC0FDD1FFE01E854FD4F008111812281D9
:1003100033815B016C01A01AB10AC20AD30A41E918
:10032000A41641E0B406C104D10408F483C060837C
:10033000718382839383FE01E55FFA4FA082B182CD
:10034000C282D3820E944E0CF701E75FFA4F6083AE
:10035000F701EF5DFA4F8081882341F0F701EE0F3E
:10036000FF1FE55EFA4F1182108202C081E0808398
:10037000809123058823F1F0FE01E854FD4F808130
:100380009181A281B3814091130550911405609130
:10039000150570911605841B950BA60BB70B8D3DAB
:1003A0009540A105B10530F010922305109220056B
:1003B00010921F058091BC029091BD02A091BE02D7
:1003C000B091BF024091B8025091B9026091BA0257
:1003D0007091BB02841B950BA60BB70BB7FF07C030
:1003E000B095A095909581959F4FAF4FBF4F8E359B
:1003F0009140A105B105F4F420911F05309120052D
:100400002F5F3F4F3093200520931F05C854DD4FC9
:1004100088819981AA81BB818093130590931405EB
:10042000A0931505B0931605233031051CF081E02B
:1004300080932305DF91CF911F910F91FF90EF9053
:10044000DF90CF90BF90AF900895809127058823CB
:1004500019F080E00C946F0108958091280588239D
:1004600019F081E00C946F010895CF93C0E040E053
:100470006C2F80EC92E00E94B60ACF5FC831B9F7CA
:1004800080E090E0FC01EA53FD4F1082118212825D
:100490000396823222E09207A9F7CF9108952F9216
:1004A0003F924F925F926F927F928F929F92AF9204
:1004B000BF92CF92DF92EF92FF920F931F93CF9351
:1004C000DF9300D000D0CDB7DEB78EE00E948A0D5A
:1004D00021E0892B09F420E0209327058FE00E947A
:1004E0008A0D21E0892B09F420E0209328052111B1
:1004F00003C08091270501C081E0809326058823F1
:1005000009F4B5C00E944E0C60931705709318054E
:100510008093190590931A0580910C01882361F04E
:100520000E94350210920C011092080110920901EC
:1005300010920A0110920B01809125058111B1C022
:1005400041E2E42E45E0F42E0BE115E059E0A52E42
:1005500055E0B52E212CC12CD12C312C6AEF862EE2
:1005600099249A94D7018C91882309F469C0712C3D
:10057000D801ED91FC91ED5DFE4F672D620D40813C
:1005800080EC92E00E94B60A7394BCE07B12F0CF3C
:10059000809123058823D1F020911F0530912005FB
:1005A00023503109EFEFE29FC001E39F900D11242A
:1005B0008B3FFFEF9F0754F0811526E0920744F42C
:1005C000B4010E9474102FEF260F03C02FEF01C05B
:1005D00020E0412C512CC6018A539D4F3C01D8018B
:1005E000ED91FC91ED5DFE4F9081F5018081830DD1
:1005F00089832A839B83B301640D751DCE01019607
:100600002C830E94DB08F3E04F0E511C2C8141E14A
:10061000441641E0540619F720910701D8018D9145
:100620009C911197820F911D11969C938E938F3FF1
:10063000910534F01D921C92F70110820E94350240
:10064000FFEFEF1AFF0A0E5F1F4F2FEFA21AB20A39
:100650004FE7340E8FEEC81A8EEFD80A9CE0290EB1
:10066000AEEF3A127FCF81E0809325051AC08091CA
:100670000C01811116C00E944E0C009117051091BB
:1006800018052091190530911A05601B710B820B1A
:10069000930B609308017093090180930A01909372
:1006A0000B018091080190910901A0910A01B0917C
:1006B0000B0180319742A105B10508F446C081E0E5
:1006C00080930C018091250581113FC000E010E06E
:1006D000E0910605E00FF0E0ED5DFE4F4081612FF7
:1006E00080EC92E00E94B60A1F5F065F183181F726
:1006F0008091060590910601890F8093060506EC0E
:1007000012E0FF24FA9480910705909108059695D0
:100710008795969587958983FA82FB82B801CE01E9
:1007200001960E94DB080D5F1F4FF4E0083E1F0793
:1007300051F780910705909108050196909308055F
:100740008093070581E08093250580912405882307
:1007500071F080EC92E00E945D0A6091380588E3B8
:1007600095E00E94B00710922405109225050F9085
:100770000F900F900F90DF91CF911F910F91FF90ED
:10078000EF90DF90CF90BF90AF909F908F907F9031
:100790006F905F904F903F902F9008959F92AF92EF
:1007A000BF92CF92DF92EF92FF920F931F93CF935E
:1007B000DF93EC01E881F98195B1926085B18D7F7D
:1007C00085B959852E81D52ED21ADE82AF84AA81B1
:1007D000BB812C853D854E852F5F3F5F4F5FEF804E
:1007E000F8849A84CB851081C12C0C2D6C2D7C2D26
:1007F00070811127889471117D0D08F47FEFD194D9
:10080000889420FD170F1795889421FD170F1795D1
:10081000889422FD170F1795889423FD170F1795BD
:10082000889424FD170F1795889425FD170F1795A9
:10083000889426FD170F1795889427FD170F179595
:100840008894072F2111012FD50E102F002C95B958
:1008500000C017FF85B971810027889400C000C0CF
:10086000002C85B971117E0D00C0002C95B900C017
:1008700016FF85B908F47FEFE194889400C000C0AA
:10088000002C85B930FD070F00C0002C95B900C0C1
:1008900015FF85B90795889431FD070F00C000C08A
:1008A000002C85B90795889400C0002C95B900C02C
:1008B00014FF85B932FD070F0795889400C000C06A
:1008C000002C85B933FD070F00C0002C95B900C07E
:1008D00013FF85B90795889434FD070F00C000C049
:1008E000002C85B90795889400C0002C95B900C0EC
:1008F00012FF85B935FD070F0795889400C000C029
:10090000002C85B936FD070F00C0002C95B900C03A
:1009100011FF85B90795889437FD070F00C000C007
:10092000002C85B90795889400C0002C95B900C0AB
:1009300010FF85B9172F3111102FE90C00C000C02E
:10094000002C85B900C000C0002C95B900C017FF6D
:1009500085B972810027889400C000C0002C85B939
:1009600071117F0D00C0002C95B900C016FF85B92C
:1009700008F47FEFEA0DF11D00C000C0002C85B91E
:1009800040FD070F00C0002C95B900C015FF85B9C8
:100990000795889441FD070F00C000C0002C85B961
:1009A0000795889400C0002C95B900C014FF85B944
:1009B00042FD070F0795889400C000C0002C85B940
:1009C00043FD070F00C0002C95B900C013FF85B987
:1009D0000795889444FD070F00C000C0002C85B91E
:1009E0000795889400C0002C95B900C012FF85B906
:1009F00045FD070F0795889400C000C0002C85B9FD
:100A000046FD070F00C0002C95B900C011FF85B945
:100A10000795889447FD070F00C000C0002C85B9DA
:100A20000795889400C0002C95B900C010FF85B9C7
:100A3000172F4111102FF19400C000C0002C85B970
:100A4000FC0E00C000C095B900C017FF85B97081C9
:100A50000027889400C000C0002C85B971117D0D5D
:100A600000C0002C95B900C016FF85B908F47FEFCF
:100A7000D194889400C000C0002C85B920FD070FD8
:100A800000C0002C95B900C015FF85B90795889462
:100A900021FD070F00C000C0002C85B90795889480
:100AA00000C0002C95B900C014FF85B922FD070FC6
:100AB0000795889400C000C0002C85B923FD070F5E
:100AC00000C0002C95B900C013FF85B90795889424
:100AD00024FD070F00C000C0002C85B9079588943D
:100AE00000C0002C95B900C012FF85B925FD070F85
:100AF0000795889400C000C0002C85B926FD070F1B
:100B000000C0002C95B900C011FF85B907958894E5
:100B100027FD070F00C000C0002C85B907958894F9
:100B200000C0002C95B900C010FF85B9172F211106
:100B3000102FD50E00C000C0002C85B9119709F008
:100B400086CEDF91CF911F910F91FF90EF90DF90B4
:100B5000CF90BF90AF909F9008950F931F93CF9326
:100B6000DF93EC018B010E945A0C2F853889621BA0
:100B7000730B6A307105B8F3F894C8010E94CE0374
:100B8000F8014281538120EE31E0DA010E94C91060
:100B9000F4E09695879577956795FA95D1F720E0DB
:100BA00030E0EAE94E9F212D5E9F200D311D11247A
:100BB000620F731F811D911D693EF3E07F07810560
:100BC0009105A8F1DC01CB01885E9340A109B10930
:100BD00072E0B695A795979587957A95D1F740E0FD
:100BE00050E027E0829F412D929F400D511D11241E
:100BF0002091290530E0280F391F240F351F8091DF
:100C0000830590918405A0918505B0918605432FB9
:100C10005527840F951FA11DB11D809383059093C7
:100C20008405A0938505B0938605209329057894C3
:100C30000E945A0C788B6F87DF91CF911F910F9193
:100C40000895FC01118A108A0895FF920F931F9353
:100C5000CF93DF93EC0180919E028F5F982F977066
:100C600090939E0280FD02C080E001C080E891FD6B
:100C70008064947009F08062A0E1FA2EF80E20E002
:100C800030E000E011E0FE01E20FF31F648566230F
:100C900031F070E0C8010E9474106F5F01C060E025
:100CA00061874F2D469F040E40E0411D11244111E4
:100CB00002C0168202C041504683662311F0615083
:100CC00061872F5F3F4F23303105E9F6DF91CF91E8
:100CD0001F910F91FF900895EF92FF920F931F9332
:100CE000CF93DF93CDB7DEB762970FB6F894DEBF30
:100CF0000FBECDBF8C017A01F901DC011C968C91ED
:100D00007A8369835C834B835E834D8390819D8767
:100D100091819E8792819F87813029F4CE0101962F
:100D20000E94250606C01C861B861A861986188610
:100D30001F82188AB701CE0101960E942106D801B0
:100D4000ED91FC910484F585E02DBE016F5F7F4F2E
:100D5000C801099562960FB6F894DEBF0FBECDBFED
:100D6000DF91CF911F910F91FF90EF900895EF9237
:100D7000FF920F931F93CF93DF93CDB7DEB76297A8
:100D80000FB6F894DEBF0FBECDBF8C017A01F9011A
:100D9000DC011C968C917A8369835C834B835E8330
:100DA0004D8390819D8791819E8792819F8781301D
:100DB00029F4CE0101960E94250606C01C861B86DA
:100DC0001A86198618861F8283E0888BB701CE01A8
:100DD00001960E942106D801ED91FC910484F585CD
:100DE000E02DBE016F5F7F4FC801099562960FB677
:100DF000F894DEBF0FBECDBFDF91CF911F910F9151
:100E0000FF90EF9008950F930AE02BE04DE061E032
:100E100080EC92E00E94420A0F9108958F929F9277
:100E2000AF92BF92EF92FF920F931F93CF93DF93F6
:100E3000EC01188219821A824423B9F1E0E0F0E053
:100E40008B010A5F1F4F7B0189E0E80EF11C842EA5
:100E5000912CA12CB12CD801AE0FBF1F2C91D70122
:100E6000AE0FBF1F6C912223E1F06623D1F030E07A
:100E700040E050E02F5F3F4F4F4F5F4F70E080E00A
:100E800090E06F5F7F4F8F4F9F4F0E9450109B01EC
:100E9000AC01C501B4010E945010DE01AE0FBF1FAE
:100EA0008C933196E330F105B1F6CE01DF91CF910D
:100EB0001F910F91FF90EF90BF90AF909F908F90F8
:100EC0000895CF92DF92EF92FF92CF93DF93EC01E0
:100ED00080912E0590912F059C012F5F3F4F3093FD
:100EE0002F0520932E05861797079CF10E944E0C24
:100EF0009B01AC01E0912E05F0912F0588EE93E067
:100F0000E89FB001E99F700DF89F700D11248827AC
:100F100077FD8095982FC0902A05D0902B05E09002
:100F20002C05F0902D052C193D094E095F090E94F2
:100F300088103A83298310922F0510922E050E9463
:100F40004E0C60932A0570932B0580932C0590938B
:100F50002D05DF91CF91FF90EF90DF90CF90089516
:100F60008F929F92AF92BF92EF92FF920F931F9337
:100F7000CF93DF9300D01F92CDB7DEB78C01F62E52
:100F8000F80183819481A581B681892B8A2B8B2BD3
:100F9000D1F00E945A0C8090300590903105A090BD
:100FA0003205B0903305681979098A099B09D8017F
:100FB00013968D909D90AD90BC901697681579050D
:100FC0008A059B05E8F20E945A0C609330057093E5
:100FD00031058093320590933305D8011B96ED912E
:100FE000FC911C97309751F0D80117964D915D9167
:100FF0006D917C911A978F2D0995F82EA09036054A
:10100000B0903705A114B10451F1F501E484D80181
:1010100011968D919C9112978436910508F414864F
:10102000D501ED91FC91828093804F2DB501CE01C9
:1010300001960E940E07F5014585568562817381F0
:101040009E012F5F3F4FC501F4010995D5011C9604
:10105000EC921C971496AD90BC901597D3CF69E194
:1010600070E0C8010E9461070F900F900F90DF9110
:10107000CF911F910F91FF90EF90BF90AF909F90F5
:101080008F900895CF92DF92EF92FF920F931F936C
:10109000CF93DF93EC014423F1F06115710581F1E9
:1010A0009B0140E050E060E472E48FE090E00E9439
:1010B000AA10CB80DC80ED80FE8089019A010C159E
:1010C0001D052E053F0510F4970186010B831C8337
:1010D0002D833E8315C06115710571F09B0140E0C1
:1010E00050E060E472E48FE090E00E94AA102B834D
:1010F0003C834D835E8304C01B821C821D821E8242
:10110000DF91CF911F910F91FF90EF90DF90CF90E3
:101110000895CF92DF92EF92FF920F931F93CF9398
:10112000DF93EC016B018A017901121613061CF0A2
:101130007A0100E010E0E881F9810480F581E02D7A
:10114000CE010995C801880F991F800F911F8C0D42
:101150009D1D9B838A83FE86ED86E881F98102844A
:10116000F385E02DCE01099541E0BC0188E395E0CF
:101170000E944208CE01DF91CF911F910F91FF9005
:10118000EF90DF90CF9008958FEF80933805109205
:101190003A051092390510924405109243058FEFDD
:1011A0009FEFDC0180933F0590934005A09341059C
:1011B000B09342050895FC01DB0140816181728199
:1011C000242F2F71220F220F220F522F35E5539F0C
:1011D000050E50E0511D1124352F942F9074842F4B
:1011E000807247FD1FC091110AC0811103C0309564
:1011F000452F11C045E5450F20E03BEA2FC0811186
:101200000CC03AEA239F020E20E0211D11243BEA84
:10121000321B4AEA450F20E021C080E0452F40956F
:10122000252F0DC0911110C081110BC03AEA239FE8
:10123000020E20E0211D11244BEA421B2B5A30E004
:101240000DC0252F209509C0811103C03B5A2BEA00
:1012500003C0365580E025E5251B40E06F3F09F4CB
:1012600023C06623F1F0332321F0369F030E30E0D4
:10127000311D442321F0469F040E40E0411D2223EE
:1012800021F0269F020E20E0211D1124562F50959B
:10129000559F050E50E0511D1124350F450F250FA8
:1012A00003C02FEF4FEF3FEF7F3F09F420C050E026
:1012B000772321F0779F512D09F05F5F5523A1F02F
:1012C000332321F0359F030E30E0311D442321F0FC
:1012D000459F040E40E0411D222321F0259F020E70
:1012E00020E0211D112403C020E040E030E03C93C9
:1012F00011964C93119712962C9308950F931F9368
:10130000CF93DF93EC01662359F00E944E0C698362
:101310007A838B839C83DF91CF911F910F910895E6
:101320000E944E0C09811A812B813C81601B710B3C
:10133000820B930B613271058105910530F763E0F3
:1013400070E080E090E00E947D0CEACF60E00C94B9
:101350007E09FC0113AA14AA15AA16AA11821282E8
:1013600013821482411551056105710521F0CB01ED
:10137000BA010C947D0C0895FB01BA01A901DC01AE
:10138000D296FC93EE93D19726E0CF010C94960E63
:101390001F93CF93DF93EC01162F65E372E089A9C9
:1013A0009AA90E94EB0F4AE050E0612F89A99AA9FF
:1013B0000E9449106CE372E089A99AA90E94EB0F80
:1013C00062E370E080E090E0DF91CF911F910C9498
:1013D0007D0C1F93CF93DF93EC01162F8D81882313
:1013E00089F189A99AA9DC01ED91FC910480F5812C
:1013F000E02D0995892BA9F307C02637310519F18E
:101400002835310509F41D8289A99AA9DC01ED91DD
:10141000FC910480F581E02D09951816190694F4C5
:1014200089A99AA9DC01ED91FC910680F781E02D54
:1014300009959C01332723363105F9F6612FCE013A
:101440000E94C80983E6DF91CF911F9108950F9301
:101450001F93CF93DF931F92CDB7DEB78C01662326
:1014600049F081E0F801858360E0C80149830E946A
:10147000E9094981F80145830F90DF91CF911F91D0
:101480000F9108950F931F93CF93DF93EC016A831D
:101490004B832C830D8388E1689F80011124C80150
:1014A0000E94F01099838883A80160E070E0DF91CA
:1014B000CF911F910F910C941712EF92FF920F93FF
:1014C0001F93CF93DF93EC0160E08D810E94540D58
:1014D0000A8188E1089F8001112401501109A0F1BF
:1014E00087E0E82EF12C60E08B810E94540DE881AA
:1014F000F981E00FF11F808190E00E2C02C09595DC
:1015000087950A94E2F780FF02C061E001C060E0C5
:101510008C810E94540D61E08B810E94540D81E00A
:10152000E81AF10800F760E08C810E94540D94E005
:10153000F92E60E08B810E94540D61E08B810E9446
:10154000540DFA94B1F7C9CF60E08B810E94540D1D
:1015500061E08D810E94540D60E08D81DF91CF911B
:101560001F910F91FF90EF900C94540DDC01ED91C1
:10157000FC91E60FF11D40830895CF93DF93EC01BA
:1015800088819981892B91F061E08B810E941B0DEC
:1015900061E08C810E941B0D61E08D810E941B0D1A
:1015A00060E08D810E94540D81E001C080E0DF91F8
:1015B000CF9108951F920F920FB60F9211242F937F
:1015C0003F934F935F936F937F938F939F93AF93CB
:1015D000BF93EF93FF93E0918005F091810509950A
:1015E000FF91EF91BF91AF919F918F917F916F91FB
:1015F0005F914F913F912F910F900FBE0F901F90D1
:101600001895FC01A3E0440F551F661F771FAA958C
:10161000D1F74115510581E06807710514F481E0A7
:101620000EC033E075956795579547953A95D1F774
:101630004115510581E0680771051CF482E0828341
:1016400031C023E075956795579547952A95D1F751
:101650004115510581E06807710514F483E0EFCF6F
:1016600092E075956795579547959A95D1F74115ED
:10167000510581E06807710514F484E0E0CF82E051
:1016800075956795579547958A95D1F785E082833B
:101690004115510581E06807710524F04FEF5FEFB8
:1016A00060E070E08FB78383F89451834083509358
:1016B00087004093860083818FBF80918100887F5F
:1016C00080938100809181009281892B8093810099
:1016D00008951092800020E1209381000C94010B6A
:1016E000E1E8F0E02081DC0112968C91282B208328
:1016F00008950F931F93CF93DF93EC018B01BA01F1
:10170000A901141615061606170614F40E94010BFB
:101710001D830C8381E080936F00CE01DF91CF9118
:101720001F910F910C94700B089508958230E8F486
:10173000E82FF0E0EE0FFF1FE35FFE4F7183608341
:10174000813041F0809169008C7F842B8093690007
:10175000E89A089580916900440F551F440F551F62
:10176000837F842B80936900E99A08951F920F92DA
:101770000FB60F9211242F933F934F935F936F9364
:101780007F938F939F93AF93BF93EF93FF93E091DA
:101790000D01F0910E010995FF91EF91BF91AF916D
:1017A0009F918F917F916F915F914F913F912F9179
:1017B0000F900FBE0F901F9018951F920F920FB6AB
:1017C0000F9211242F933F934F935F936F937F93C7
:1017D0008F939F93AF93BF93EF93FF93E0910F018C
:1017E000F09110010995FF91EF91BF91AF919F91F9
:1017F0008F917F916F915F914F913F912F910F90BA
:101800000FBE0F901F9018951F920F920FB60F9258
:1018100011242F933F938F939F93AF93BF93809106
:10182000830590918405A0918505B091860530913E
:10183000820523E0230F2D3720F40196A11DB11D51
:1018400005C026E8230F0296A11DB11D2093820535
:101850008093830590938405A0938505B0938605B6
:101860008091870590918805A0918905B0918A059E
:101870000196A11DB11D8093870590938805A093C3
:101880008905B0938A05BF91AF919F918F913F9148
:101890002F910F900FBE0F901F9018952FB7F894AF
:1018A00060918305709184058091850590918605EE
:1018B0002FBF08953FB7F8948091870590918805D0
:1018C000A0918905B0918A0526B5A89B05C02F3F38
:1018D00019F00196A11DB11D3FBF6627782F892FF2
:1018E0009A2F620F711D811D911D42E0660F771FB7
:1018F000881F991F4A95D1F708958F929F92AF92B2
:10190000BF92CF92DF92EF92FF926B017C010E9417
:101910005A0C4B015C01C114D104E104F104F1F053
:101920000E94940B0E945A0C681979098A099B0934
:10193000683E73408105910570F321E0C21AD10819
:10194000E108F10888EE880E83E0981EA11CB11C06
:10195000C114D104E104F10429F7DDCFFF90EF9029
:10196000DF90CF90BF90AF909F908F900895789424
:1019700084B5826084BD84B5816084BD85B5826094
:1019800085BD85B5816085BDEEE6F0E08081816032
:101990008083E1E8F0E01082808182608083808132
:1019A00081608083E0E8F0E0808181608083E1EB0A
:1019B000F0E0808184608083E0EBF0E080818160F2
:1019C0008083EAE7F0E080818460808380818260A8
:1019D0008083808181608083808180688083109291
:1019E000C1000895833081F028F4813099F082306D
:1019F000A1F008958730A9F08830B9F08430D1F48F
:101A0000809180008F7D03C0809180008F778093CC
:101A10008000089584B58F7702C084B58F7D84BD22
:101A200008958091B0008F7703C08091B0008F7DC2
:101A30008093B0000895CF93DF9390E0FC01E458C9
:101A4000FF4F2491FC01E057FF4F8491882349F117
:101A500090E0880F991FFC01E854FF4FA591B491C5
:101A600082559F4FFC01C591D4919FB7611108C069
:101A7000F8948C91209582238C93888182230AC0CC
:101A8000623051F4F8948C91322F309583238C93EB
:101A90008881822B888304C0F8948C91822B8C934C
:101AA0009FBFDF91CF9108950F931F93CF93DF9343
:101AB0001F92CDB7DEB7282F30E0F901E859FF4F6C
:101AC0008491F901E458FF4F1491F901E057FF4F59
:101AD00004910023C9F0882321F069830E94F20C4D
:101AE0006981E02FF0E0EE0FFF1FE255FF4FA59157
:101AF000B4919FB7F8948C91611103C01095812324
:101B000001C0812B8C939FBF0F90DF91CF911F91CC
:101B10000F910895CF93DF93282F30E0F901E85912
:101B2000FF4F8491F901E458FF4FD491F901E05738
:101B3000FF4FC491CC2391F081110E94F20CEC2F45
:101B4000F0E0EE0FFF1FEC55FF4FA591B4912C91E3
:101B50002D2381E090E021F480E002C080E090E05D
:101B6000DF91CF910895FC01818D228D90E0805C02
:101B70009F4F821B91098F7399270895FC01918DC6
:101B8000828D981731F0828DE80FF11D858D90E0E0
:101B900008958FEF9FEF0895FC01918D828D981726
:101BA00061F0828DDF01A80FB11D5D968C91928D41
:101BB0009F5F9F73928F90E008958FEF9FEF08953E
:101BC00080E59FE0892B49F080E090E0892B29F0A7
:101BD0000E94500F81110C9400000895FC01848D27
:101BE000DF01A80FB11DA35ABF4F2C91848D90E047
:101BF00001968F739927848FA689B7892C93A08922
:101C0000B1898C9180648C93938D848D981306C0D8
:101C10000288F389E02D80818F7D80830895CF93A2
:101C2000DF93EC01888D8823C9F0EA89FB898081E4
:101C300085FD05C0A889B9898C9186FD0FC00FB6B6
:101C400007FCF5CF808185FFF2CFA889B9898C91F7
:101C500085FFEDCFCE010E94EE0DE7CFDF91CF9152
:101C60000895CF92DF92FF920F931F93CF93DF934C
:101C70001F92CDB7DEB76C0181E0D60158968C93E8
:101C800058975B969C915B975C968C915C979813A8
:101C900007C05096ED91FC915197808185FD2EC033
:101CA000F601038D10E00F5F1F4F0F731127F02E09
:101CB000F601848DF81211C00FB607FCF9CFD601DA
:101CC0005096ED91FC915197808185FFF1CFC6012F
:101CD00069830E94EE0D6981EBCF838DE80FF11DC2
:101CE000E35AFF4F6083D6015B960C935B97529645
:101CF000ED91FC915397808180620CC0D60156967D
:101D0000ED91FC91579760835096ED91FC9151971E
:101D100080818064808381E090E00F90DF91CF919B
:101D20001F910F91FF90DF90CF900895BF92CF92B7
:101D3000DF92EF92FF92CF93DF93EC016A017B0178
:101D4000B22EE889F98982E08083411581EE580737
:101D500061057105A1F060E079E08DE390E0A701F5
:101D600096010E9488102150310941095109569568
:101D7000479537952795211580E1380798F0E88930
:101D8000F989108260E874E88EE190E0A70196017D
:101D90000E948810215031094109510956954795F3
:101DA00037952795EC85FD853083EE85FF8520836B
:101DB000188EEC89FD89B082EA89FB898081806177
:101DC0008083EA89FB89808188608083EA89FB8936
:101DD000808180688083EA89FB8980818F7D808310
:101DE000DF91CF91FF90EF90DF90CF90BF9008955B
:101DF0001F920F920FB60F9211242F938F939F93E0
:101E0000EF93FF93E0919B05F0919C058081E09119
:101E1000A105F091A20582FD12C090818091A405D8
:101E20008F5F8F732091A505821751F0E091A40573
:101E3000F0E0E557FA4F958F8093A40501C08081AB
:101E4000FF91EF919F918F912F910F900FBE0F9067
:101E50001F9018951F920F920FB60F9211242F9377
:101E60003F934F935F936F937F938F939F93AF9322
:101E7000BF93EF93FF938BE895E00E94EE0DFF91E7
:101E8000EF91BF91AF919F918F917F916F915F91F2
:101E90004F913F912F910F900FBE0F901F9018956B
:101EA0008BE895E00E94B30D21E0892B09F420E036
:101EB000822F089510928E0510928D0588EE93E082
:101EC000A0E0B0E080938F0590939005A0939105DA
:101ED000B093920581E992E090938C0580938B05F5
:101EE00085EC90E0909398058093970584EC90E0C2
:101EF00090939A058093990580EC90E090939C05CF
:101F000080939B0581EC90E090939E0580939D05C6
:101F100082EC90E09093A00580939F0586EC90E082
:101F20009093A2058093A1051092A4051092A50597
:101F30001092A6051092A705089508950E94B70C67
:101F40000E949D0F0E94BF00C0EEDDE00E944F0284
:101F50002097E1F30E94E00DF9CFCF92DF92EF924C
:101F6000FF920F931F93CF93DF937C016A01EB01E4
:101F700000E010E00C151D0571F06991D701ED919D
:101F8000FC910190F081E02DC7010995892B19F092
:101F90000F5F1F4FEFCFC801DF91CF911F910F91BE
:101FA000FF90EF90DF90CF9008956115710581F05B
:101FB000DB010D900020E9F7AD0141505109461BAE
:101FC000570BDC01ED91FC910280F381E02D099427
:101FD00080E090E008950C94D50F8F929F92AF927D
:101FE000BF92DF92EF92FF920F931F93CF93DF93F5
:101FF000CDB7DEB7A1970FB6F894DEBF0FBECDBF49
:102000007C01F42FD52ECB0119A2223008F42AE04E
:102010008E010F5D1F4F822E912CA12CB12C6F2FA2
:102020007D2DA50194010E948810F22FD32ECA01A4
:10203000015011096A3014F4E0E301C0E7E3E60F50
:10204000D801EC93232B242B252B49F7B801C7018A
:102050000E94D50FA1960FB6F894DEBF0FBECDBF7C
:10206000DF91CF911F910F91FF90EF90DF90BF9084
:10207000AF909F908F9008952115310541F4DC01B8
:10208000ED91FC910190F081E02D642F09940C9466
:10209000ED0F9A01462F50E060E070E00C943C1088
:1020A000DB018F939F930E94D010BF91AF91A29FAD
:1020B000800D911DA39F900DB29F900D1124089546
:1020C000AA1BBB1B51E107C0AA1FBB1FA617B7075E
:1020D00010F0A61BB70B881F991F5A95A9F780957A
:1020E0009095BC01CD01089597FB072E16F400943E
:1020F00007D077FD09D00E94601007FC05D03EF4A0
:10210000909581959F4F0895709561957F4F0895A3
:10211000A1E21A2EAA1BBB1BFD010DC0AA1FBB1FEB
:10212000EE1FFF1FA217B307E407F50720F0A21B5D
:10213000B30BE40BF50B661F771F881F991F1A94CA
:1021400069F760957095809590959B01AC01BD01F4
:10215000CF010895052E97FB1EF400940E94C11034
:1021600057FD07D00E94881007FC03D04EF40C9452
:10217000C11050954095309521953F4F4F4F5F4F7F
:10218000089590958095709561957F4F8F4F9F4FE3
:1021900008950E94E110B7FF0895821B930B0895E4
:1021A0000E94E110A59F900DB49F900DA49F800DFB
:1021B000911D11240895EE0FFF1F0590F491E02D5D
:1021C0000994A29FB001B39FC001A39F700D811D10
:1021D0001124911DB29F700D811D1124911D089530
:1021E000CF93DF938230910510F482E090E0E0918C
:1021F0002A06F0912B0620E030E0A0E0B0E0309716
:1022000039F14081518148175907B8F048175907EB
:1022100071F482819381109729F013969C938E9389
:1022200012972CC090932B0680932A0627C0211565
:10223000310531F04217530718F0A901DB0101C045
:10224000EF019A01BD01DF010280F381E02DD7CFBC
:1022500021153105F9F0281B390B2430310580F4A4
:102260008A819B816115710521F0FB019383828333
:1022700004C090932B0680932A06FE01329644C038
:10228000FE01E20FF31F81939193225031093983AC
:1022900028833AC02091280630912906232B41F447
:1022A00020910201309103013093290620932806E2
:1022B00020910001309101012115310541F42DB724
:1022C0003EB74091040150910501241B350BE0916C
:1022D0002806F0912906E217F307A0F42E1B3F0B06
:1022E0002817390778F0AC014E5F5F4F2417350788
:1022F00048F04E0F5F1F50932906409328068193A4
:10230000919302C0E0E0F0E0CF01DF91CF9108951A
:10231000CF93DF93009709F487C0FC0132971382B3
:102320001282C0912A06D0912B06209781F4208139
:102330003181280F391F8091280690912906821734
:10234000930779F5F0932906E09328066DC0DE0126
:1023500020E030E0AE17BF0750F412964D915C912B
:1023600013979D014115510509F1DA01F3CFB383AC
:10237000A28340815181840F951F8A179B0771F4B6
:102380008D919C911197840F951F02969183808364
:1023900012968D919C911397938382832115310519
:1023A00029F4F0932B06E0932A063EC0D901139638
:1023B000FC93EE9312974D915D91A40FB51FEA1710
:1023C000FB0779F480819181840F951F0296D901D2
:1023D00011969C938E938281938113969C938E93F6
:1023E0001297E0E0F0E08A819B81009719F0FE01EE
:1023F000EC01F9CFCE01029628813981820F931F1B
:1024000020912806309129062817390769F430975A
:1024100029F410922B0610922A0602C0138212820F
:10242000D0932906C0932806DF91CF910895DC014F
:1024300001C06D9341505040E0F70895F894FFCFEC
:1024400000002C06800003061027000001950B9564
:102450000B564D4450565F317C315F564D445056BB
:102460000D0A00000007121D29343F4A55606B76A3
:10247000808A949EA7B0B8C0C8CFD6DCE2E7ECF063
:10248000F3F6F9FBFCFDFEFEFEFDFCFAF9F7F4F2B3
:10249000EFECE9E6E3DFDCD8D4D0CDC9C5C1BEBAE4
:1024A000B6B2AFABA8A4A19D9A9793908D8A87846A
:1024B000817E7C797674716F6D6A686664615F5D38
:1024C0005B5957565452504F4D4B4A484745444329
:1024D00041403F3D3C3B3A39373635343332313079
:1024E0002F2E2D2C2C2B2A29282727262524242360
:1024F00022222120201F1E1E1D1D1C1C1B1B1A1901
:102500001918181717171616151514141413131273
:10251000121211111010100F0F0F0E0E0E0D0D0DC7
:102520000D0C0C0C0B0B0B0B0A0A0A0A0909090902
:102530000808080807070707070606060606050530
:102540000505050404040404040303030303030250
:102550000202020202020101010101010100000068
:10256000000000000000006C06B706BD0092008E5F
:1025700000BA00AD05564D4450435F005F564D44D0
:1025800050430D0A004572726F723A2041747465AF
:102590006D707420746F20736574206120726561A2
:1025A000642D6F6E6C79207661726961626C652052
:1025B0006F7220646174612074797065206E6F742D
:1025C00020737570706F727465640D0A00000000EE
:0E25D00000310EAD0FB30DCC0DBE0D0F0E0081
:00000001FF
