:100000000C9464000C948C000C948C000C948C0068
:100010000C948C000C948C000C948C000C948C0030
:100020000C948C000C948C000C948C000C948C0020
:100030000C948C000C94BC030C948C000C948C00DD
:100040000C9476040C948C000C9458070C948A073A
:100050000C948C000C948C000C948C000C948C00F0
:100060000C948C000C948C0000000008000201002D
:100070000003040700000000000000000102040863
:100080001020408001020408102001020408102002
:10009000040404040404040402020202020203032E
:1000A00003030303000000002300260029000000D2
:1000B0000000250028002B0000000000240027007D
:1000C0002A00AE012003BA0711241FBECFEFD8E0EB
:1000D000DEBFCDBF11E0A0E0B1E0E6E2F4E102C096
:1000E00005900D92A03DB107D9F723E0A0EDB1E056
:1000F00001C01D92A738B207E1F710E0C8ECD0E0CC
:1001000004C02297FE010E94DF08C23CD107C9F754
:100110000E94FE070C94110A0C94000040ED57E079
:1001200060E070E084EF91E00E94E10120E835E2B8
:1001300040E050E066EE72E084EF91E00E94F4014E
:1001400084EF91E00E94DE0166E071E0809125027B
:10015000909126020E944B086AE070E080E090E0F7
:100160000E94EF0441E060E084EF91E00E945F02B2
:1001700060E081E00E947B0560E081E00E947B05F9
:1001800060E081E00E947B0560E081E00E947B05E9
:100190004AE151E460E070E087ED92E00E944B0498
:1001A0002FEF3FEFA90165E173E087ED92E00E9438
:1001B0005B040E947A0226E040E855E260E070E0CD
:1001C00086EE92E00C94F6064F925F926F927F92C9
:1001D0009F92AF92BF92CF92DF92EF92FF920F93D6
:1001E0001F93CF93DF9381E00E94EA05892B49F4A6
:1001F00081E00E94EA0521E0892B09F420E0822FAA
:1002000001C081E08093DC01811111C0DF91CF91A9
:100210001F910F91FF90EF90DF90CF90BF90AF9024
:100220009F907F906F905F904F900C94F5020E948A
:10023000C0046093E1017093E2018093E301909325
:10024000E40181E00E94EA0521E0892B09F420E025
:100250002093D20181E00E94EA0521E0892B09F474
:1002600020E02093D301C0EDD1E08EEDA82E81E0F7
:10027000B82E94EDE92E91E0F92E25EEC22E21E064
:10028000D22E02ED11E0992493948881F8018823FD
:1002900029F08081811150C018824EC0808188234E
:1002A00009F44AC09882F50190820E94C004F701C7
:1002B00040805180628073809B01AC012419350914
:1002C00046095709F6012083318342835383F7019E
:1002D00060837183828393838091D8019091D90147
:1002E000A091DA01B091DB014091D4015091D50188
:1002F0006091D6017091D701841B950BA60BB70BAB
:10030000B7FF07C0B095A095909581959F4FAF4FCF
:10031000BF4F84369105A105B10554F48091E001E9
:100320008F5F8093E001833038F09092DD0104C04C
:100330001092E0011092DD012196FFEFAF1ABF0A83
:1003400024E0E20EF11C34E0C30ED11C0F5F1F4FFE
:1003500041E0C23DD40709F098CF58CF8FEF80938A
:10036000ED011092EF011092EE0108950F931F938B
:10037000CF93DF93EC01662359F00E94C004698398
:100380007A838B839C83DF91CF911F910F91089586
:100390000E94C00409811A812B813C81601B710B72
:1003A000820B930B623371058105910530F763E091
:1003B00070E080E090E00E94EF04EACF60E00C94EF
:1003C000B601FC0113AA14AA15AA16AA1182128258
:1003D00013821482411551056105710521F0CB018D
:1003E000BA010C94EF040895FB01BA01A901DC01E4
:1003F000D296FC93EE93D19726E0CF010C94F606AB
:100400001F93CF93DF93EC01162F68E171E089A968
:100410009AA90E944B084AE050E0612F89A99AA945
:100420000E94B3086FE171E089A99AA90E944B0864
:1004300062E370E080E090E0DF91CF911F910C9437
:10044000EF041F93CF93DF93EC01162F8D81882348
:1004500089F189A99AA9DC01ED91FC910480F581CB
:10046000E02D0995892BA9F307C02637310519F12D
:100470002835310509F41D8289A99AA9DC01ED917D
:10048000FC910480F581E02D09951816190694F465
:1004900089A99AA9DC01ED91FC910680F781E02DF4
:1004A00009959C01332723363105F9F6612FCE01DA
:1004B0000E94000283E6DF91CF911F9108950F9370
:1004C0001F93CF93DF931F92CDB7DEB78C016623C6
:1004D00049F081E0F801858360E0C80149830E940A
:1004E00021024981F80145830F90DF91CF911F913F
:1004F0000F9108958BE292E00C949F0328E4829F71
:10050000C00111248F5C9D4F20E030E0FC01E20F20
:10051000F31F11821082148212822A5F3F4F283407
:100520003105A1F708950F931F930E94C004009115
:10053000CB021091CC022091CD023091CE02601BF3
:10054000710B820B930B6093C2027093C302809372
:10055000C4029093C5021F910F91089594E0899F62
:10056000F0011124EA53FD4F6185728583859485DE
:1005700022E0660F771F881F991F2A95D1F725E083
:1005800030E040E050E00E94BB0843E1E42FF0E09F
:10059000DF01AA0FBB1FA856BE4F8D919C91281753
:1005A00039073CF4EE0FFF1FE059FE4F8081918127
:1005B00008954150EBCFCF93C82F0E94AE0298E42C
:1005C000C99FA00111244F5C5D4F20E030E091E015
:1005D000FA01E20FF31F9183938385832A5F3F4FD4
:1005E00028343105A9F7CF9108958091C602882358
:1005F000C9F08091C802882341F080E00E947E0209
:1006000080E00E94DB021092C8028091C902882318
:1006100059F081E00E947E0281E00E94DB0210928C
:10062000C90208950C94930208958091C102882311
:1006300031F08BE292E00E9446031092C1020895CD
:100640000F9306E024E045E061E08BE292E00E9437
:100650002B030F9108950F931F93CF93DF93EC011A
:100660006A834B832C830D8388E1689F800111246A
:10067000C8010E94E30899838883A80160E070E0C4
:10068000DF91CF911F910F910C940A0AEF92FF9284
:100690000F931F93CF93DF93EC0160E08D810E9455
:1006A000B4050A8188E1089F8001112401501109D5
:1006B000A0F187E0E82EF12C60E08B810E94B40568
:1006C000E881F981E00FF11F808190E00E2C02C0DB
:1006D000959587950A94E2F780FF02C061E001C01A
:1006E00060E08C810E94B40561E08B810E94B405BA
:1006F00081E0E81AF10800F760E08C810E94B405FF
:1007000094E0F92E60E08B810E94B40561E08B815A
:100710000E94B405FA94B1F7C9CF60E08B810E94C2
:10072000B40561E08D810E94B40560E08D81DF91A8
:10073000CF911F910F91FF90EF900C94B405CF9340
:10074000DF93EC0188819981892B91F061E08B81A5
:100750000E947B0561E08C810E947B0561E08D81B8
:100760000E947B0560E08D810E94B40581E001C09C
:1007700080E0DF91CF9108951F920F920FB60F92F4
:1007800011242F933F934F935F936F937F938F9396
:100790009F93AF93BF93EF93FF93E091DB02F091B0
:1007A000DC020995FF91EF91BF91AF919F918F91DD
:1007B0007F916F915F914F913F912F910F900FBE5D
:1007C0000F901F901895FC01A3E0440F551F661F62
:1007D000771FAA95D1F74115510581E0680771058A
:1007E00014F481E00EC033E07595679557954795F1
:1007F0003A95D1F74115510581E0680771051CF460
:1008000082E0828331C023E07595679557954795BF
:100810002A95D1F74115510581E06807710514F457
:1008200083E0EFCF92E075956795579547959A9538
:10083000D1F74115510581E06807710514F484E092
:10084000E0CF82E075956795579547958A95D1F7E2
:1008500085E082834115510581E06807710524F028
:100860004FEF5FEF60E070E08FB78383F8945183C0
:100870004083509387004093860083818FBF80918F
:100880008100887F80938100809181009281892BF3
:100890008093810008951092800020E120938100D0
:1008A0000C94E303E1E8F0E02081DC0112968C91E6
:1008B000282B208308950F931F93CF93DF93EC0190
:1008C0008B01BA01A901141615061606170614F4B1
:1008D0000E94E3031D830C8381E080936F00CE01AF
:1008E000DF91CF911F910F910C9452041F920F92A0
:1008F0000FB60F9211242F933F938F939F93AF9333
:10090000BF938091DE029091DF02A091E002B0914E
:10091000E1023091DD0223E0230F2D3720F4019610
:10092000A11DB11D05C026E8230F0296A11DB11D12
:100930002093DD028093DE029093DF02A093E00219
:10094000B093E1028091E2029091E302A091E4026F
:10095000B091E5020196A11DB11D8093E202909332
:10096000E302A093E402B093E502BF91AF919F919F
:100970008F913F912F910F900FBE0F901F90189560
:100980002FB7F8946091DE027091DF028091E0024F
:100990009091E1022FBF08953FB7F8948091E20251
:1009A0009091E302A091E402B091E50226B5A89BE4
:1009B00005C02F3F19F00196A11DB11D3FBF66274D
:1009C000782F892F9A2F620F711D811D911D42E092
:1009D000660F771F881F991F4A95D1F70895CF9208
:1009E000DF92EF92FF92CF93DF936B017C010E9425
:1009F000CC04EB01C114D104E104F10489F00E949C
:100A0000BA080E94CC046C1B7D0B683E734090F3C7
:100A100081E0C81AD108E108F108C851DC4FEACFDB
:100A2000DF91CF91FF90EF90DF90CF900895789471
:100A300084B5826084BD84B5816084BD85B58260E3
:100A400085BD85B5816085BDEEE6F0E08081816081
:100A50008083E1E8F0E01082808182608083808181
:100A600081608083E0E8F0E0808181608083E1EB59
:100A7000F0E0808184608083E0EBF0E08081816041
:100A80008083EAE7F0E080818460808380818260F7
:100A900080838081816080838081806880831092E0
:100AA000C1000895833081F028F4813099F08230BC
:100AB000A1F008958730A9F08830B9F08430D1F4DE
:100AC000809180008F7D03C0809180008F7780931C
:100AD0008000089584B58F7702C084B58F7D84BD72
:100AE00008958091B0008F7703C08091B0008F7D12
:100AF0008093B0000895CF93DF9390E0FC01E45819
:100B0000FF4F2491FC01E057FF4F8491882349F166
:100B100090E0880F991FFC01E854FF4FA591B49114
:100B200082559F4FFC01C591D4919FB7611108C0B8
:100B3000F8948C91209582238C93888182230AC01B
:100B4000623051F4F8948C91322F309583238C933A
:100B50008881822B888304C0F8948C91822B8C939B
:100B60009FBFDF91CF9108950F931F93CF93DF9392
:100B70001F92CDB7DEB7282F30E0F901E859FF4FBB
:100B80008491F901E458FF4F1491F901E057FF4FA8
:100B900004910023C9F0882321F069830E94520543
:100BA0006981E02FF0E0EE0FFF1FE255FF4FA591A6
:100BB000B4919FB7F8948C91611103C01095812373
:100BC00001C0812B8C939FBF0F90DF91CF911F911C
:100BD0000F910895CF93DF93282F30E0F901E85962
:100BE000FF4F8491F901E458FF4FD491F901E05788
:100BF000FF4FC491CC2391F081110E945205EC2F3C
:100C0000F0E0EE0FFF1FEC55FF4FA591B4912C9132
:100C10002D2381E090E021F480E002C080E090E0AC
:100C2000DF91CF910895FC01818D228D90E0805C51
:100C30009F4F821B91098F7399270895FC01918D15
:100C4000828D981731F0828DE80FF11D858D90E02F
:100C500008958FEF9FEF0895FC01918D828D981775
:100C600061F0828DDF01A80FB11D5D968C91928D90
:100C70009F5F9F73928F90E008958FEF9FEF08958D
:100C800080EB97E0892B49F080E090E0892B29F0F8
:100C90000E94B00781110C9400000895FC01848D1E
:100CA000DF01A80FB11DA35ABF4F2C91848D90E096
:100CB00001968F739927848FA689B7892C93A08971
:100CC000B1898C9180648C93938D848D981306C028
:100CD0000288F389E02D80818F7D80830895CF93F2
:100CE000DF93EC01888D8823C9F0EA89FB89808134
:100CF00085FD05C0A889B9898C9186FD0FC00FB606
:100D000007FCF5CF808185FFF2CFA889B9898C9146
:100D100085FFEDCFCE010E944E06E7CFDF91CF9148
:100D20000895CF92DF92FF920F931F93CF93DF939B
:100D30001F92CDB7DEB76C01DC015B969C915B978F
:100D40005C968C915C97981307C05096ED91FC913E
:100D50005197808185FD32C0F601038D10E00F5F51
:100D60001F4F0F731127F02EF601848DF81211C05A
:100D70000FB607FCF9CFD6015096ED91FC91519733
:100D8000808185FFF1CFC60169830E944E0669818B
:100D9000EBCF838DE80FF11DE35AFF4F6083D6013F
:100DA0005B960C935B975296ED91FC9153978081E3
:100DB0008062808381E058968C930DC0D601569650
:100DC000ED91FC91579760835096ED91FC9151976E
:100DD00080818064808381E090E00F90DF91CF91EB
:100DE0001F910F91FF90DF90CF900895BF92CF9207
:100DF000DF92EF92FF92CF93DF93EC016A017B01C8
:100E0000B22EE889F98982E08083411581EE580786
:100E100061057105A1F060E079E08DE390E0A70144
:100E200096010E94BB08215031094109510956958C
:100E3000479537952795211580E1380798F0E8897F
:100E4000F989108260E874E88EE190E0A7019601CC
:100E50000E94BB0821503109410951095695479517
:100E600037952795EC85FD853083EE85FF852083BA
:100E7000188EEC89FD89B082EA89FB8980818061C6
:100E80008083EA89FB89808188608083EA89FB8985
:100E9000808180688083EA89FB8980818F7D80835F
:100EA000DF91CF91FF90EF90DF90CF90BF900895AA
:100EB0001F920F920FB60F9211242F938F939F932F
:100EC000EF93FF93E091F602F091F7028081E091B9
:100ED000FC02F091FD0282FD12C090818091FF0220
:100EE0008F5F8F7320910003821751F0E091FF0212
:100EF000F0E0EA51FD4F958F8093FF0201C08081A1
:100F0000FF91EF919F918F912F910F900FBE0F90B6
:100F10001F9018951F920F920FB60F9211242F93C6
:100F20003F934F935F936F937F938F939F93AF9371
:100F3000BF93EF93FF9386EE92E00E944E06FF91DF
:100F4000EF91BF91AF919F918F917F916F915F9141
:100F50004F913F912F910F900FBE0F901F901895BA
:100F600086EE92E00E94130621E0892B09F420E02E
:100F7000822F08951092E9021092E80288EE93E021
:100F8000A0E0B0E08093EA029093EB02A093EC0221
:100F9000B093ED0284EC91E09093E7028093E60237
:100FA00085EC90E09093F3028093F20284EC90E061
:100FB0009093F5028093F40280EC90E09093F70216
:100FC0008093F60281EC90E09093F9028093F8020E
:100FD00082EC90E09093FB028093FA0286EC90E022
:100FE0009093FD028093FC021092FF021092000386
:100FF0001092010310920203089508950E941705AC
:101000000E94FD070E948E00C0E4D6E00E94E4002A
:101010002097E1F30E944006F9CFCF92DF92EF9242
:10102000FF920F931F93CF93DF936C017A01EB0133
:10103000E60EF71E00E010E0CE15DF0561F06991C5
:10104000D601ED91FC910190F081E02DC60109954A
:10105000080F191FF1CFC801DF91CF911F910F9198
:10106000FF90EF90DF90CF9008956115710581F0AA
:10107000DB010D900020E9F7AD0141505109461BFD
:10108000570BDC01ED91FC910280F381E02D099476
:1010900080E090E008950C9435088F929F92AF9273
:1010A000BF92CF92DF92EF92FF920F931F93CF9355
:1010B000DF93CDB7DEB7A1970FB6F894DEBF0FBEB2
:1010C000CDBF7C01C42EE52FCB01D22E19A221E089
:1010D0002D1510F02AE0D22E8E010F5D1F4F8D2CA2
:1010E000912CA12CB12C6C2D7E2FA50194010E9476
:1010F000BB088C2DD29E80191124015011098A3011
:1011000014F4805D01C0895CF801808321153105EC
:101110004105510521F0C22EE32FCA01E4CFB801E9
:10112000C7010E943508A1960FB6F894DEBF0FBE26
:10113000CDBFDF91CF911F910F91FF90EF90DF9086
:10114000CF90BF90AF909F908F900895211531055B
:1011500041F4DC01ED91FC910190F081E02D642FD0
:1011600009940C944D089A01462F50E060E070E01D
:101170000C94A6080895A1E21A2EAA1BBB1BFD0120
:101180000DC0AA1FBB1FEE1FFF1FA217B307E40766
:10119000F50720F0A21BB30BE40BF50B661F771FBE
:1011A000881F991F1A9469F760957095809590959E
:1011B0009B01AC01BD01CF010895EE0FFF1F05900B
:1011C000F491E02D0994CF93DF938230910510F4D0
:1011D00082E090E0E0918503F091860320E030E02A
:1011E000A0E0B0E0309739F14081518148175907AC
:1011F000B8F04817590771F482819381109729F04C
:1012000013969C938E9312972CC090938603809391
:10121000850327C02115310531F04217530718F017
:10122000A901DB0101C0EF019A01BD01DF010280CC
:10123000F381E02DD7CF21153105F9F0281B390BAB
:101240002430310580F48A819B816115710521F07C
:10125000FB019383828304C090938603809385036C
:10126000FE01329644C0FE01E20FF31F8193919379
:1012700022503109398328833AC020918303309169
:101280008403232B41F42091020130910301309318
:1012900084032093830320910001309101012115E3
:1012A000310541F42DB73EB740910401509105013D
:1012B000241B350BE0918303F0918403E217F307BD
:1012C000A0F42E1B3F0B2817390778F0AC014E5FB6
:1012D0005F4F2417350748F04E0F5F1F509384036C
:1012E000409383038193919302C0E0E0F0E0CF014B
:1012F000DF91CF910895CF93DF93009709F487C0D2
:10130000FC01329713821282C0918503D09186032B
:10131000209781F420813181280F391F8091830328
:10132000909184038217930779F5F0938403E093F7
:1013300083036DC0DE0120E030E0AE17BF0750F43C
:1013400012964D915C9113979D014115510509F13C
:10135000DA01F3CFB383A28340815181840F951FBB
:101360008A179B0771F48D919C911197840F951F9B
:1013700002969183808312968D919C91139793830B
:1013800082832115310529F4F0938603E0938503C8
:101390003EC0D9011396FC93EE9312974D915D9147
:1013A000A40FB51FEA17FB0779F480819181840FA0
:1013B000951F0296D90111969C938E9382819381F9
:1013C00013969C938E931297E0E0F0E08A819B81C4
:1013D000009719F0FE01EC01F9CFCE0102962881A9
:1013E0003981820F931F2091830330918403281742
:1013F000390769F4309729F4109286031092850317
:1014000002C013821282D0938403C0938303DF91BE
:10141000CF910895DC0101C06D9341505040E0F739
:061420000895F894FFCFCF
:10142600000087038000564D4450565F317C315F83
:10143600564D4450560D0A00564D4450435F005FCA
:10144600564D4450430D0A004572726F723A204160
:101456007474656D707420746F20736574206120D8
:10146600726561642D6F6E6C792076617269616256
:101476006C65206F722064617461207479706520D8
:101486006E6F7420737570706F727465640D0A00E8
:101496000100020003000400050006000700080022
:1014A60009000A000B000C000D000E000F001000D2
:1014B6001100120013001400AB1055088E052B0402
:1014C6005503C70262021502DA01AB018401640109
:1014D600480131011C010B01FB00ED00E100D500C4
:1014E6000000000091060D0813062C061E066F0666
:00000001FF
