:100000000C9464000C949C0B0C94C30B0C948C000B
:100010000C948C000C948C000C948C000C948C0030
:100020000C948C000C948C000C948C000C948C0020
:100030000C948C000C94C10A0C948C000C948C00D1
:100040000C94EA0B0C948C000C94FB0E0C942D0F6A
:100050000C948C000C948C000C948C000C948C00F0
:100060000C948C000C948C0000000008000201002D
:100070000003040700000000000000000102040863
:100080001020408001020408102001020408102002
:10009000040404040404040402020202020203032E
:1000A00003030303000000002300260029000000D2
:1000B0000000250028002B0000000000240027007D
:1000C0002A00EC069C085D0F11241FBECFEFD8E07C
:1000D000DEBFCDBF12E0A0E0B1E0EEE7F4E202C087
:1000E00005900D92A83AB107D9F726E0A8EAB2E048
:1000F00001C01D92A833B207E1F710E0C8ECD0E0D0
:1001000004C02297FE010E94FC10C23CD107C9F72F
:100110000E94A10F0C943D120C94000081E080938A
:100120003505089580E991E00895219A0895AF92E8
:10013000BF92CF92DF92EF92FF920F931F93CF93D4
:10014000DF93082F0E94340C6B017C0110E0E80162
:10015000CC0FDD1FCC0FDD1FFE01EE53FD4F808164
:100160009181A281B381B701A601481B590B6A0B8B
:100170007B0B413921E052076105710508F499C0F4
:10018000C082D182E282F382FE01ED5EFA4F4083AB
:100190005183628373835801AA0CBB1CF501E75F8E
:1001A000FE4F61E080810E94570DFE01E55EFA4F2F
:1001B000C082D182E282F382F801EE5CFA4F808144
:1001C000882331F0F501E55DFA4F1182108202C0FB
:1001D00081E080834AE050E060913A0587E995E04C
:1001E0000E945710809134058823F1F0FE01EE53F0
:1001F000FD4F80819181A281B3814091230550916F
:1002000024056091250570912605841B950BA60B8E
:10021000B70B8D3D9540A105B10530F01092340526
:100220001092300510922F058091C6029091C7025E
:10023000A091C802B091C9024091C2025091C3027C
:100240006091C4027091C502841B950BA60BB70B7D
:10025000B7FF07C0B095A095909581959F4FAF4F80
:10026000BF4F40913A0550E060E070E08417950779
:10027000A607B707F4F420912F05309130052F5FC2
:100280003F4F3093300520932F05CE53DD4F8881AB
:100290009981AA81BB818093230590932405A09323
:1002A0002505B0932605233031051CF081E08093AD
:1002B0003405DF91CF911F910F91FF90EF90DF9068
:1002C000CF90BF90AF90089580913805882319F0A2
:1002D00080E00C949700089580913905882319F0E7
:1002E00081E00C9497000895CF93C0E040E06C2F1C
:1002F0008AEC92E00E949D0ACF5FC831B9F780E096
:1003000090E0FC01E053FD4F1082118212820396AF
:10031000823222E09207A9F7CF9108952F923F925F
:100320004F925F926F927F928F929F92AF92BF9205
:10033000CF92DF92EF92FF920F931F93CF93DF93B1
:1003400000D000D0CDB7DEB78EE00E948D0D21E049
:10035000892B09F420E0209338058FE00E948D0D51
:1003600021E0892B09F420E020933905211103C0F5
:100370008091380501C081E080933705882309F416
:10038000A9C00E94340C60932705709328058093C0
:10039000290590932A0580910801882321F00E9465
:1003A000740110920801809136058111B4C042E3B6
:1003B000E42E45E0F42E0BE215E0512C812C912C1B
:1003C00050E6452E3324339422242A946AEFC62E15
:1003D000DD24DA94D7018C91882309F469C0109246
:1003E0003105B12CD801ED91FC91EC5DFE4F6B2DE8
:1003F000650D40818AEC92E00E949D0AB394BCE0B6
:10040000BB12F0CF809134058823C9F020912F05CD
:100410003091300523503109229EC001239E900D5A
:1004200011248B3FEFEF9E0754F08115F6E09F07F4
:1004300044F4B6010E9493102FEF260F03C02FEF54
:1004400001C020E0A12CB12CC40180539D4F3C0180
:10045000D801ED91FC91EC5DFE4F808149822A83A9
:100460008B83B3016A0D7B1DCE0101962C830E9404
:10047000AF08B3E0AB0EB11C2C81E1E1AE16E1E0B8
:10048000BE0631F720910701D8018D919C911197FB
:10049000820F911D11969C938E938F3F910544F08E
:1004A0001D921C92F70110820E9474013092310556
:1004B000FFEFEF1AFF0A0E5F1F4F2FEE821A2EEF8B
:1004C000920A8CE0580E98E1591284CF81E0809313
:1004D000360521C080913105811105C00E9474014B
:1004E00081E08093310580910801811114C00E9440
:1004F000340C009127051091280520912905309191
:100500002A05601B710B820B930B603177428105CA
:10051000910508F0ACC080910801882309F445C01A
:1005200080913605811141C01092310500E010E044
:10053000E0911005E00FF0E0EC5DFE4F4081612F8F
:100540008AEC92E00E949D0A1F5F065F183181F7D6
:100550008091100590910601890F8093100500EDA0
:1005600012E0FF24FA94809111059091120596955E
:100570008795969587958983FA82FB82B801CE018B
:1005800001960E94AF080D5F1F4FB4E0023F1B07AA
:1005900051F78091110590911205019690931205E3
:1005A0008093110581E0809336058091350588237D
:1005B00071F08AEC92E00E94440A60914A058AE454
:1005C00095E00E94990710923505109236050BE1CF
:1005D00015E029E0E22E21E0F22EF80180819181E0
:1005E000A281B381892B8A2B8B2BD9F00E94340CEA
:1005F000D8018D909D90AD90BC90681979098A09B9
:100600009B09633371058105910558F060E0F7019E
:1006100080810E94570DD8011D921D921D921C923F
:1006200013970C5F1F4FB2E0EB0EF11CE5E00332B5
:100630001E0799F684E00E94D80C8E5C80933A05E0
:100640000F900F900F900F90DF91CF911F910F910E
:10065000FF90EF90DF90CF90BF90AF909F908F90E2
:100660007F906F905F904F903F902F90089581E022
:100670008093080150CF40ED57E060E070E081E5E5
:1006800095E00E94900920E032EC41E050E067E9FB
:1006900075E081E595E00E94A30981E595E00E945F
:1006A0008D0962E171E080918205909183050E943D
:1006B000EE0F6AE070E080E090E00E94630C41E0A1
:1006C00060E081E595E00E940E0A8AEC92E00E94CB
:1006D000A40A8091BA02811145C01092AC02109216
:1006E000AB028FEF8093AF028093B0028093B10290
:1006F0008093B2028093B3028093B40281E080932E
:10070000B5021092B7021092B6021092AE02109289
:10071000AD028091480590914905892B31F489EA11
:1007200092E09093490580934805E0914605F09149
:100730004705309721F089EA92E09583848389EA1E
:1007400092E090934705809346051092B90210926B
:10075000B80288E292E09093AA028093A90281E015
:100760008093BA0220E030E040EC50E060ED72E0AF
:1007700089EA92E00E94610862E08EE00E941E0D0C
:1007800062E08FE00E941E0D62E082E00E941E0D7A
:1007900062E083E00E941E0D61E085E00E941E0D74
:1007A00061E086E00E941E0D60E0809109010E94D8
:1007B000570D60E080910B010E94570D43E050E01F
:1007C00064E671E080E00E947C0B43E050E06CE660
:1007D00071E081E00E947C0B4AE151E460E070E04E
:1007E00088E895E00E94500B2FEF3FEFA9016EE8DB
:1007F00070E088E895E00E94600B0C9474018F9281
:100800009F92AF92BF92CF92DF92EF92FF920F939F
:100810001F93CF93DF93EC01E881F98195B192604A
:1008200085B18D7F85B93F812C81D32ED21ADC8290
:10083000AD84AA81BB812A859B848C84ED80FE8057
:10084000788519850990D881C02D0881002331F061
:10085000402F0D2D400F08F44FEF01C040E0042F52
:10086000029F012D1124C0E04C2F5C2F6C2F002C17
:10087000EA01CC2E4C2D5D2F95B900C007FF85B93C
:1008800061814427889400C000C0002C85B96111A3
:100890006E0D00C0002C95B900C006FF85B908F4A4
:1008A0006FEF889400C000C000C085B990FC460F6F
:1008B00000C0002C95B900C005FF85B94795889404
:1008C00091FC460F00C000C0002C85B94795889464
:1008D00000C0002C95B900C004FF85B992FC460FFA
:1008E0004795889400C000C0002C85B993FC460F42
:1008F00000C0002C95B900C003FF85B947958894C6
:1009000094FC460F00C000C0002C85B94795889420
:1009100000C0002C95B900C002FF85B995FC460FB8
:100920004795889400C000C0002C85B996FC460FFE
:1009300000C0002C95B900C001FF85B94795889487
:1009400097FC460F00C000C0002C85B947958894DD
:1009500000C0002C95B900C000FF85B9E194E70EF6
:1009600000C000C000C0002C85B9042F00C000C02A
:1009700095B900C007FF85B962814427889400C0FB
:1009800000C0002C85B961116F0D00C0002C95B915
:1009900000C006FF85B908F46FEF889400C000C05E
:1009A00000C085B980FC460F00C0002C95B900C07E
:1009B00005FF85B94795889481FC460F00C000C0AB
:1009C000002C85B94795889400C0002C95B900C0CB
:1009D00004FF85B982FC460F4795889400C000C08B
:1009E000002C85B983FC460F00C0002C95B900C0CF
:1009F00003FF85B94795889484FC460F00C000C06A
:100A0000002C85B94795889400C0002C95B900C08A
:100A100002FF85B985FC460F4795889400C000C049
:100A2000002C85B986FC460F00C0002C95B900C08B
:100A300001FF85B94795889487FC460F00C000C028
:100A4000002C85B94795889400C0002C95B900C04A
:100A500000FF85B9EA0DF11D8894042F00C000C085
:100A6000002C85B9F194F10E00C0002C95B900C09E
:100A700007FF85B960814427889400C000C0002C1E
:100A800085B961116D0D00C0002C95B900C006FF3D
:100A900085B908F46FEF889400C000C000C085B924
:100AA00020FD460F00C0002C95B900C005FF85B998
:100AB0004795889421FD460F00C000C0002C85B9E1
:100AC0004795889400C0002C95B900C004FF85B9F3
:100AD00022FD460F4795889400C000C0002C85B9C0
:100AE00023FD460F00C0002C95B900C003FF85B957
:100AF0004795889424FD460F00C000C0002C85B99E
:100B00004795889400C0002C95B900C002FF85B9B4
:100B100025FD460F4795889400C000C0002C85B97C
:100B200026FD460F00C0002C95B900C001FF85B915
:100B30004795889427FD460F00C000C0002C85B95A
:100B40004795889400C0002C95B900C000FF85B976
:100B5000D194D30E042F00C000C000C085B91197F6
:100B600009F08ACEDF91CF911F910F91FF90EF9006
:100B7000DF90CF90BF90AF909F908F900895FF929D
:100B80000F931F93CF93DF93EC018091A8028F5FA7
:100B9000982F97709093A80280FD02C080E001C05A
:100BA00080E891FD8064947009F0806270E1F72E16
:100BB000F80E20E030E000E011E0FE01E20FF31F4C
:100BC0006285662331F070E0C8010E9493106F5F68
:100BD00001C060E067834F2D469F412D112444835F
:100BE000662311F0615067832F5F3F4F233031053B
:100BF00021F7DF91CF911F910F91FF900895AF9250
:100C0000BF92CF92DF92EF92FF920F93CF93DF9339
:100C1000CDB7DEB72E970FB6F894DEBF0FBECDBFAF
:100C20006C015A01F901DC011C968C917A8369836D
:100C30005C834B8390819B8791819C8792819D8768
:100C4000813029F4CE0101960E94BF0506C01A86A4
:100C5000198618861F821E821D8289819A818E0DB7
:100C6000911D9A838983002319F083E08E0D01C0C2
:100C700080E08E870E94400CF60127853089621B38
:100C8000730B6A307105B0F3F894CE0101960E949F
:100C9000FF0320EE31E0D5010E94E810A4E0969514
:100CA000879577956795AA95D1F720E030E04AE9D6
:100CB000A49E212DB49E200D311D1124620F731F9F
:100CC000811D911D693EF3E07F0781059105A8F123
:100CD000DC01CB01885E9340A109B109E2E0B69541
:100CE000A79597958795EA95D1F740E050E027E0E2
:100CF000829F412D929F400D511D112420913B0553
:100D000030E0280F391F240F351F80918F059091F7
:100D10009005A0919105B0919205432F5527840F1E
:100D2000951FA11DB11D80938F0590939005A093F1
:100D30009105B093920520933B0578940E94400C56
:100D4000D60150967C936E931F972E960FB6F8940B
:100D5000DEBF0FBECDBFDF91CF910F91FF90EF901F
:100D6000DF90CF90BF90AF900895EF92FF920F93D6
:100D7000E12CF12C00E00E94FF050F91FF90EF9015
:100D80000895EF92FF920F93E12CF12C01E00E9465
:100D9000FF050F91FF90EF900895EF92FF920F9350
:100DA000CF93DF9300D01F92CDB7DEB7AB0119828E
:100DB0001A821B82E12CF12C00E09E012F5F3F4F35
:100DC000B9010E94FF050F900F900F90DF91CF9116
:100DD0000F91FF90EF9008950F930AE02BE04DE004
:100DE00061E08AEC92E00E94290A0F9108958F92A7
:100DF0009F92AF92BF92EF92FF920F931F93CF9368
:100E0000DF93EC01188219821A824423B9F1E0E0E1
:100E1000F0E08B010A5F1F4F7B0189E0E80EF11CB7
:100E2000842E912CA12CB12CD801AE0FBF1F2C9178
:100E3000D701AE0FBF1F6C912223E1F06623D1F0E2
:100E400030E040E050E02F5F3F4F4F4F5F4F70E08A
:100E500080E090E06F5F7F4F8F4F9F4F0E946F1039
:100E60009B01AC01C501B4010E946F10DE01AE0F01
:100E7000BF1F8C933196E330F105B1F6CE01DF91BF
:100E8000CF911F910F91FF90EF90BF90AF909F90E7
:100E90008F900895CF92DF92EF92FF92CF93DF93DE
:100EA000EC0180914005909141059C012F5F3F4FDF
:100EB0003093410520934005861797079CF10E94C7
:100EC000340C9B01AC01E0914005F091410588EEA6
:100ED00093E0E89FB001E99F700DF89F700D112419
:100EE000882777FD8095982FC0903C05D0903D05D0
:100EF000E0903E05F0903F052C193D094E095F0931
:100F00000E94A7103A832983109241051092400550
:100F10000E94340C60933C0570933D0580933E0520
:100F200090933F05DF91CF91FF90EF90DF90CF90AE
:100F30000895AF92BF92CF92DF92EF92FF920F93FC
:100F40001F93CF93DF9300D01F92CDB7DEB78C01F4
:100F5000B62EF80183819481A581B681892B8A2BD5
:100F60008B2BD1F00E94400CC0904205D0904305DD
:100F7000E0904405F09045056C197D098E099F09A4
:100F8000D8011396CD90DD90ED90FC9016976C15DE
:100F90007D058E059F05E8F20E94400C6093420596
:100FA000709343058093440590934505E090480570
:100FB000F0904905E114F10451F1F701A484D8013E
:100FC00011968D919C9112978436910508F41486A0
:100FD000D701ED91FC91C280D3804B2DB701CE019A
:100FE00001960E94F706F701458556856281738157
:100FF0009E012F5F3F4FC701F6010995D7011C964F
:10100000AC921C971496ED90FC901597D3CF69E1A4
:1010100070E0C8010E944A070F900F900F90DF9177
:10102000CF911F910F91FF90EF90DF90CF90BF90E5
:10103000AF900895CF92DF92EF92FF920F931F939C
:10104000CF93DF93EC014423F1F06115710581F139
:101050009B0140E050E060E472E48FE090E00E9489
:10106000C910CB80DC80ED80FE8089019A010C15CF
:101070001D052E053F0510F4970186010B831C8387
:101080002D833E8315C06115710571F09B0140E011
:1010900050E060E472E48FE090E00E94C9102B837E
:1010A0003C834D835E8304C01B821C821D821E8292
:1010B000DF91CF911F910F91FF90EF90DF90CF9034
:1010C0000895CF92DF92EF92FF920F931F93CF93E9
:1010D000DF93EC016B018A017901121613061CF0F3
:1010E0007A0100E010E0E881F9810480F581E02DCB
:1010F000CE010995C801880F991F800F911F8C0D93
:101100009D1D9B838A83FE86ED86E881F98100849C
:10111000F185E02DCE01099541E0BC018AE495E01E
:101120000E941A08CE01DF91CF911F910F91FF907D
:10113000EF90DF90CF9008958FEF80934A05109243
:101140004C0510924B050895FC012081222321F0CB
:10115000269F212D09F02F5FFC0120830895FF9227
:101160000F931F93CF93DF9300D000D0CDB7DEB79E
:10117000FC018B014081F1805281842F8F71880F97
:10118000880F880F282F35E5239F212D1124342F18
:101190003074942F907247FD25C031110EC091110B
:1011A00006C0822F80958B832A8319823FC08BEAE9
:1011B0008B832B5A2A83198239C091110DC0382F85
:1011C0004AEA349F312D11249BEA931B9B832555BA
:1011D0002A83198280E02AC01B8280E0822F8095BA
:1011E0008A8312C0311112C091110BC01B82282FAB
:1011F0003AEA239F212D11248BEA821B8A832B5AE2
:1012000003C02B831A822095298310C0911106C038
:1012100085E5820F8B831A828BEA06C08BEA820FE8
:101220008B831A8280E085E5821B89832FEFF2167B
:1012300001F16F2DCE0103965C830E94A4086F2DEF
:10124000CE0102960E94A4086F2DCE0101960E9445
:10125000A40811246F2D6095669F612D11248B8148
:10126000860F8B838A81860F8A838981860F898383
:101270005C815F3FC9F0F12C2F2D552321F0559F44
:10128000212D09F02F5FF22E622FCE0103960E94CE
:10129000A4086F2DCE0102960E94A4086F2DCE01E6
:1012A00001960E94A40811248B81F80180838A8111
:1012B0008183898182830F900F900F900F90DF912F
:1012C000CF911F910F91FF9008950F931F93CF938C
:1012D000DF93EC01662359F00E94340C69837A8312
:1012E0008B839C83DF91CF911F910F9108950E9472
:1012F000340C09811A812B813C81601B710B820B9C
:10130000930B623371058105910530F763E070E05E
:1013100080E090E00E94630CEACF60E00C946509E5
:10132000FC0113AA14AA15AA16AA1182128213820A
:101330001482411551056105710521F0CB01BA01F7
:101340000C94630C0895FB01BA01A901DC01D2964B
:10135000FC93EE93D19726E0CF010C94990E1F9346
:10136000CF93DF93EC01162F62E372E089A99AA96B
:101370000E94EE0F4AE050E0612F89A99AA90E94CD
:10138000501069E372E089A99AA90E94EE0F62E306
:1013900070E080E090E0DF91CF911F910C94630C9E
:1013A0001F93CF93DF93EC01162F8D81882389F152
:1013B00089A99AA9DC01ED91FC910480F581E02DC9
:1013C0000995892BA9F307C02637310519F128356E
:1013D000310509F41D8289A99AA9DC01ED91FC91DE
:1013E0000480F581E02D09951816190694F489A951
:1013F0009AA9DC01ED91FC910680F781E02D099519
:101400009C01332723363105F9F6612FCE010E9466
:10141000AF0983E6DF91CF911F9108950F931F933A
:10142000CF93DF931F92CDB7DEB78C01662349F0CF
:1014300081E0F801858360E0C80149830E94D009FA
:101440004981F80145830F90DF91CF911F910F9152
:1014500008950F931F93CF93DF93EC016A834B831F
:101460002C830D8388E1689F80011124C8010E94AC
:101470000F1199838883A80160E070E0DF91CF911C
:101480001F910F910C943612EF92FF920F931F93BE
:10149000CF93DF93EC0160E08D810E94570D0A81AC
:1014A00088E1089F8001112401501109A0F187E013
:1014B000E82EF12C60E08B810E94570DE881F981C4
:1014C000E00FF11F808190E00E2C02C0959587956A
:1014D0000A94E2F780FF02C061E001C060E08C8105
:1014E0000E94570D61E08B810E94570D81E0E81A40
:1014F000F10800F760E08C810E94570D94E0F92E0E
:1015000060E08B810E94570D61E08B810E94570D36
:10151000FA94B1F7C9CF60E08B810E94570D61E06A
:101520008D810E94570D60E08D81DF91CF911F91D9
:101530000F91FF90EF900C94570DDC01ED91FC9111
:10154000E60FF11D40830895CF93DF93EC0188816E
:101550009981892B91F061E08B810E941E0D61E0E1
:101560008C810E941E0D61E08D810E941E0D60E045
:101570008D810E94570D81E001C080E0DF91CF9105
:1015800008951F920F920FB60F9211242F933F933D
:101590004F935F936F937F938F939F93AF93BF937B
:1015A000EF93FF93E0918C05F0918D050995FF91E4
:1015B000EF91BF91AF919F918F917F916F915F91CB
:1015C0004F913F912F910F900FBE0F901F90189544
:1015D000FC01A3E0440F551F661F771FAA95D1F7A2
:1015E0004115510581E06807710514F481E00EC0D2
:1015F00033E075956795579547953A95D1F741151D
:10160000510581E0680771051CF482E0828331C0D6
:1016100023E075956795579547952A95D1F741151C
:10162000510581E06807710514F483E0EFCF92E083
:1016300075956795579547959A95D1F74115510539
:1016400081E06807710514F484E0E0CF82E07595CD
:101650006795579547958A95D1F785E0828341151F
:10166000510581E06807710524F04FEF5FEF60E0FE
:1016700070E08FB78383F894518340835093870041
:101680004093860083818FBF80918100887F809303
:101690008100809181009281892B8093810008953F
:1016A0001092800020E1209381000C94E80AE1E888
:1016B000F0E02081DC0112968C91282B2083089584
:1016C0000F931F93CF93DF93EC018B01BA01A90114
:1016D000141615061606170614F40E94E80A1D8350
:1016E0000C8381E080936F00CE01DF91CF911F9139
:1016F0000F910C94570B08958230E8F4E82FF0E036
:10170000EE0FFF1FE35FFE4F71836083813041F076
:10171000809169008C7F842B80936900E89A0895FA
:1017200080916900440F551F440F551F837F842B00
:1017300080936900E99A08951F920F920FB60F9255
:1017400011242F933F934F935F936F937F938F93C6
:101750009F93AF93BF93EF93FF93E0910D01F091AF
:101760000E010995FF91EF91BF91AF919F918F91DC
:101770007F916F915F914F913F912F910F900FBE8D
:101780000F901F9018951F920F920FB60F92112471
:101790002F933F934F935F936F937F938F939F9379
:1017A000AF93BF93EF93FF93E0910F01F09110017E
:1017B0000995FF91EF91BF91AF919F918F917F918B
:1017C0006F915F914F913F912F910F900FBE0F90AE
:1017D0001F9018951F920F920FB60F9211242F93FE
:1017E0003F938F939F93AF93BF9380918F05909179
:1017F0009005A0919105B091920530918E0523E05E
:10180000230F2D3720F40196A11DB11D05C026E838
:10181000230F0296A11DB11D20938E0580938F0585
:1018200090939005A0939105B093920580919305B4
:1018300090919405A0919505B09196050196A11DF2
:10184000B11D8093930590939405A0939505B09353
:101850009605BF91AF919F918F913F912F910F90DE
:101860000FBE0F901F9018952FB7F89460918F05B9
:101870007091900580919105909192052FBF0895E8
:101880003FB7F8948091930590919405A0919505A8
:10189000B091960526B5A89B05C02F3F19F001967B
:1018A000A11DB11D3FBF6627782F892F9A2F620F88
:1018B000711D811D911D42E0660F771F881F991FC2
:1018C0004A95D1F708958F929F92AF92BF92CF928F
:1018D000DF92EF92FF926B017C010E94400C4B0162
:1018E0005C01C114D104E104F104F1F00E946E1016
:1018F0000E94400C681979098A099B09683E734067
:101900008105910570F321E0C21AD108E108F108C0
:1019100088EE880E83E0981EA11CB11CC114D1046E
:10192000E104F10429F7DDCFFF90EF90DF90CF9035
:10193000BF90AF909F908F900895789484B5826007
:1019400084BD84B5816084BD85B5826085BD85B563
:10195000816085BDEEE6F0E0808181608083E1E812
:10196000F0E010828081826080838081816080834A
:10197000E0E8F0E0808181608083E1EBF0E080814D
:1019800084608083E0EBF0E0808181608083EAE71F
:10199000F0E08081846080838081826080838081A8
:1019A000816080838081806880831092C100089567
:1019B0008E3008F08E5087702091110190E4299F9D
:1019C00090011124822B80937C0080917A008064A6
:1019D00080937A0080917A0086FDFCCF8091780018
:1019E0002091790090E0922B0895833081F028F4C3
:1019F000813099F08230A1F008958730A9F08830C5
:101A0000B9F08430D1F4809180008F7D03C0809143
:101A100080008F7780938000089584B58F7702C00F
:101A200084B58F7D84BD08958091B0008F7703C009
:101A30008091B0008F7D8093B0000895CF93DF93A5
:101A400090E0FC01E458FF4F2491FC01E057FF4F68
:101A50008491882349F190E0880F991FFC01E85494
:101A6000FF4FA591B49182559F4FFC01C591D49130
:101A70009FB7611108C0F8948C91209582238C93B4
:101A8000888182230AC0623051F4F8948C91322FFD
:101A9000309583238C938881822B888304C0F894AB
:101AA0008C91822B8C939FBFDF91CF9108950F93E0
:101AB0001F93CF93DF931F92CDB7DEB7282F30E06F
:101AC000F901E859FF4F8491F901E458FF4F14914F
:101AD000F901E057FF4F04910023C9F0882321F05A
:101AE00069830E94F50C6981E02FF0E0EE0FFF1F83
:101AF000E255FF4FA591B4919FB7F8948C91611175
:101B000003C01095812301C0812B8C939FBF0F9040
:101B1000DF91CF911F910F910895CF93DF93282FDD
:101B200030E0F901E859FF4F8491F901E458FF4F83
:101B3000D491F901E057FF4FC491CC2391F081116A
:101B40000E94F50CEC2FF0E0EE0FFF1FEC55FF4F5D
:101B5000A591B4912C912D2381E090E021F480E0B7
:101B600002C080E090E0DF91CF910895FC01818D6B
:101B7000228D90E0805C9F4F821B91098F73992783
:101B80000895FC01918D828D981731F0828DE80FB8
:101B9000F11D858D90E008958FEF9FEF0895FC0172
:101BA000918D828D981761F0828DDF01A80FB11D94
:101BB0005D968C91928D9F5F9F73928F90E00895B8
:101BC0008FEF9FEF089583E59FE0892B49F080E038
:101BD00090E0892B29F00E94530F81110C94000092
:101BE0000895FC01848DDF01A80FB11DA35ABF4FDA
:101BF0002C91848D90E001968F739927848FA6890C
:101C0000B7892C93A089B1898C9180648C93938D32
:101C1000848D981306C00288F389E02D80818F7D22
:101C200080830895CF93DF93EC01888D8823C9F0DA
:101C3000EA89FB89808185FD05C0A889B9898C91D5
:101C400086FD0FC00FB607FCF5CF808185FFF2CF70
:101C5000A889B9898C9185FFEDCFCE010E94F10D45
:101C6000E7CFDF91CF910895CF92DF92FF920F934C
:101C70001F93CF93DF931F92CDB7DEB76C0181E046
:101C8000D60158968C9358975B969C915B975C967F
:101C90008C915C97981307C05096ED91FC915197E9
:101CA000808185FD2EC0F601038D10E00F5F1F4F70
:101CB0000F731127F02EF601848DF81211C00FB6A4
:101CC00007FCF9CFD6015096ED91FC915197808198
:101CD00085FFF1CFC60169830E94F10D6981EBCFC9
:101CE000838DE80FF11DE35AFF4F6083D6015B96A9
:101CF0000C935B975296ED91FC9153978081806293
:101D00000CC0D6015696ED91FC9157976083509682
:101D1000ED91FC91519780818064808381E090E017
:101D20000F90DF91CF911F910F91FF90DF90CF9097
:101D30000895BF92CF92DF92EF92FF92CF93DF93FD
:101D4000EC016A017B01B22EE889F98982E0808387
:101D5000411581EE580761057105A1F060E079E059
:101D60008DE390E0A70196010E94A7102150310950
:101D7000410951095695479537952795211580E1D9
:101D8000380798F0E889F989108260E874E88EE1F4
:101D900090E0A70196010E94A71021503109410946
:101DA00051095695479537952795EC85FD853083E4
:101DB000EE85FF852083188EEC89FD89B082EA8943
:101DC000FB89808180618083EA89FB8980818860CA
:101DD0008083EA89FB89808180688083EA89FB8926
:101DE00080818F7D8083DF91CF91FF90EF90DF9096
:101DF000CF90BF9008951F920F920FB60F921124AB
:101E00002F938F939F93EF93FF93E091A705F0910A
:101E1000A8058081E091AD05F091AE0582FD12C06C
:101E200090818091B0058F5F8F732091B1058217EB
:101E300051F0E091B005F0E0E956FA4F958F8093AC
:101E4000B00501C08081FF91EF919F918F912F91FB
:101E50000F900FBE0F901F9018951F920F920FB604
:101E60000F9211242F933F934F935F936F937F9320
:101E70008F939F93AF93BF93EF93FF9387E995E081
:101E80000E94F10DFF91EF91BF91AF919F918F91C2
:101E90007F916F915F914F913F912F910F900FBE66
:101EA0000F901F90189587E995E00E94B60D21E0EC
:101EB000892B09F420E0822F089510929A05109240
:101EC000990588EE93E0A0E0B0E080939B059093A5
:101ED0009C05A0939D05B0939E058EE892E090939B
:101EE00098058093970585EC90E09093A4058093E6
:101EF000A30584EC90E09093A6058093A50580EC63
:101F000090E09093A8058093A70581EC90E09093D2
:101F1000AA058093A90582EC90E09093AC0580938C
:101F2000AB0586EC90E09093AE058093AD051092E2
:101F3000B0051092B1051092B2051092B305089544
:101F400008950E949D0C0E94A00F0E943B03C3EEC7
:101F5000DDE00E948E012097E1F30E94E30DF9CFAE
:101F6000CF92DF92EF92FF920F931F93CF93DF9365
:101F70007C016A01EB0100E010E00C151D0571F019
:101F80006991D701ED91FC910190F081E02DC7019D
:101F90000995892B19F00F5F1F4FEFCFC801DF9113
:101FA000CF911F910F91FF90EF90DF90CF90089508
:101FB0006115710581F0DB010D900020E9F7AD019D
:101FC00041505109461B570BDC01ED91FC910280F9
:101FD000F381E02D099480E090E008950C94D80FEF
:101FE0006FE372E00C94D80F8F929F92AF92BF92E2
:101FF000DF92EF92FF920F931F93CF93DF93CDB7B2
:10200000DEB7A1970FB6F894DEBF0FBECDBF7C013F
:10201000F42FD52ECB0119A2223008F42AE08E012C
:102020000F5D1F4F822E912CA12CB12C6F2F7D2D77
:10203000A50194010E94A710F22FD32ECA010150CE
:1020400011096A3014F4E0E301C0E7E3E60FD801B8
:10205000EC93232B242B252B49F7B801C7010E94B1
:10206000D80FA1960FB6F894DEBF0FBECDBFDF919B
:10207000CF911F910F91FF90EF90DF90BF90AF90A5
:102080009F908F9008952115310541F4DC01ED9169
:10209000FC910190F081E02D642F09940C94F40FD1
:1020A0009A01462F50E060E070E00C9443100F93CB
:1020B0001F93CF93DF93EC019A01462F50E060E02D
:1020C00070E00E9443108C01CE010E94F00F800F3F
:1020D000911FDF91CF911F910F9108950895DB011A
:1020E0008F939F930E94EF10BF91AF91A29F800D9D
:1020F000911DA39F900DB29F900D11240895AA1BCE
:10210000BB1B51E107C0AA1FBB1FA617B70710F0E2
:10211000A61BB70B881F991F5A95A9F78095909514
:10212000BC01CD01089597FB072E16F4009407D04B
:1021300077FD09D00E947F1007FC05D03EF49095F2
:1021400081959F4F0895709561957F4F0895A1E205
:102150001A2EAA1BBB1BFD010DC0AA1FBB1FEE1F21
:10216000FF1FA217B307E407F50720F0A21BB30B6C
:10217000E40BF50B661F771F881F991F1A9469F7E8
:1021800060957095809590959B01AC01BD01CF0144
:102190000895052E97FB1EF400940E94E01057FD51
:1021A00007D00E94A71007FC03D04EF40C94E01057
:1021B00050954095309521953F4F4F4F5F4F089573
:1021C00090958095709561957F4F8F4F9F4F0895A3
:1021D0000E940011B7FF0895821B930B08950E947F
:1021E0000011A59F900DB49F900DA49F800D911D8F
:1021F00011240895EE0FFF1F0590F491E02D09942E
:10220000A29FB001B39FC001A39F700D811D112437
:10221000911DB29F700D811D1124911D0895CF93C2
:10222000DF938230910510F482E090E0E091360671
:10223000F091370620E030E0A0E0B0E0309739F1CF
:102240004081518148175907B8F04817590771F470
:1022500082819381109729F013969C938E93129705
:102260002CC0909337068093360627C02115310580
:1022700031F04217530718F0A901DB0101C0EF014B
:102280009A01BD01DF010280F381E02DD7CF211536
:102290003105F9F0281B390B2430310580F48A818F
:1022A0009B816115710521F0FB019383828304C03A
:1022B0009093370680933606FE01329644C0FE01A5
:1022C000E20FF31F819391932250310939832883C0
:1022D0003AC02091340630913506232B41F42091E9
:1022E000020130910301309335062093340620918A
:1022F0000001309101012115310541F42DB73EB7A0
:102300004091040150910501241B350BE0913406E6
:10231000F0913506E217F307A0F42E1B3F0B2817A8
:10232000390778F0AC014E5F5F4F2417350748F04E
:102330004E0F5F1F5093350640933406819391935F
:1023400002C0E0E0F0E0CF01DF91CF910895CF939C
:10235000DF93009709F487C0FC0132971382128241
:10236000C0913606D0913706209781F420813181C3
:10237000280F391F809134069091350682179307F4
:1023800079F5F0933506E09334066DC0DE0120E068
:1023900030E0AE17BF0750F412964D915C91139741
:1023A0009D014115510509F1DA01F3CFB383A283F1
:1023B00040815181840F951F8A179B0771F48D917D
:1023C0009C911197840F951F02969183808312969A
:1023D0008D919C911397938382832115310529F464
:1023E000F0933706E09336063EC0D9011396FC936E
:1023F000EE9312974D915D91A40FB51FEA17FB075D
:1024000079F480819181840F951F0296D9011196EC
:102410009C938E938281938113969C938E931297B3
:10242000E0E0F0E08A819B81009719F0FE01EC0169
:10243000F9CFCE01029628813981820F931F209116
:102440003406309135062817390769F4309729F496
:10245000109237061092360602C013821282D09371
:102460003506C0933406DF91CF910895DC0101C099
:0E2470006D9341505040E0F70895F894FFCF6F
:10247E00000038068000030601050006007B0B7B7A
:10248E000B01564D4450565F317C315F564D4450D2
:10249E00560D0A00000007121D29343F4A55606B85
:1024AE0076808A949EA7B0B8C0C8CFD6DCE2E7EC9F
:1024BE00F0F3F6F9FBFCFDFEFEFEFDFCFAF9F7F477
:1024CE00F2EFECE9E6E3DFDCD8D4D0CDC9C5C1BE6E
:1024DE00BAB6B2AFABA8A4A19D9A9793908D8A87F6
:1024EE0084817E7C797674716F6D6A686664615FD3
:1024FE005D5B5957565452504F4D4B4A48474544D1
:10250E004341403F3D3C3B3A393736353433323127
:10251E00302F2E2D2C2C2B2A292827272625242414
:10252E002322222120201F1E1E1D1D1C1C1B1B1AB8
:10253E00191918181717171616151514141413132E
:10254E0012121211111010100F0F0F0E0E0E0D0D84
:10255E000D0D0C0C0C0B0B0B0B0A0A0A0A090909C0
:10256E0009080808080707070707060606060605EE
:10257E00050505050404040404040303030303030F
:10258E000202020202020201010101010101000028
:10259E000000000000000000B506C1069500CD0643
:1025AE009200564D4450435F005F564D4450430DCC
:1025BE000A004572726F723A20417474656D7074C0
:1025CE0020746F20736574206120726561642D6FB5
:1025DE006E6C79207661726961626C65206F722013
:1025EE00646174612074797065206E6F74207375E8
:1025FE0070706F727465640D0A0000000000340E76
:10260E00B00FB60DCF0DC10D120E6E616E00696E5C
:08261E0066006F7666002E00D5
:00000001FF
