:100000000C9463000C94C60A0C94ED0A0C948B00BB
:100010000C948B000C948B000C948B000C948B0034
:100020000C948B000C948B000C948B000C948B0024
:100030000C948B000C94EB090C948B000C948B00AB
:100040000C94140B0C948B000C948B000C948B0070
:100050000C948B000C948B000C948B000C948B00F4
:100060000C948B000C948B0000000008000201002F
:100070000003040700000000000000000102040863
:100080001020408001020408102001020408102002
:10009000040404040404040402020202020203032E
:1000A00003030303000000002300260029000000D2
:1000B0000000250028002B0000000000240027007D
:1000C0002A00D806990811241FBECFEFD8E0DEBF62
:1000D000CDBF12E0A0E0B1E0E2EDFCE102C005908E
:1000E0000D92A432B107D9F724E0A4E2B2E001C036
:1000F0001D92AE3DB207E1F710E0C6ECD0E004C0BF
:100100002297FE010E94260DC23CD107C9F70E942A
:100110008A0C0C94670E0C940000FC018585968572
:100120000895CF93DF9300D000D000D0CDB7DEB7D5
:10013000AB011C821D821E82DC01ED91FC910190BD
:10014000F081E02D19821A821B829E012F5F3F4FA2
:10015000BE016C5F7F4F099526960FB6F894DEBFFF
:100160000FBECDBFDF91CF91089581E08093AA04A7
:10017000089580E991E00895219A089586E492E037
:100180000E94CE0980913602811145C0109228024A
:10019000109227028FEF80932B0280932C02809382
:1001A0002D0280932E0280932F028093300281E0F3
:1001B00080933102109233021092320210922A027E
:1001C000109229028091BC049091BD04892B31F4D6
:1001D00085E292E09093BD048093BC04E091BA0460
:1001E000F091BB04309721F085E292E095838483FF
:1001F00085E292E09093BB048093BA04109235029A
:100200001092340285E192E09093260280932502B9
:1002100081E08093360220E030E040EC50E06CE476
:1002200072E085E292E00E945E0862E08EE00E9449
:10023000F10B62E08FE00E94F10B62E082E00E942D
:10024000F10B62E083E00E94F10B42E050E06AEFC4
:1002500071E080E00E94A60A42E050E062E072E0B5
:1002600081E00E94A60A4AE151E460E070E08BEC74
:1002700094E00E947A0A2FEF3FEFA90165EB70E04E
:100280008BEC94E00C948A0AAF92BF92CF92DF92EB
:10029000EF92FF920F931F93CF93DF93E82E0E946C
:1002A0005E0BF12CE701CC0FDD1FCC0FDD1FFE0133
:1002B000E25CFD4F00811181228133815B016C0181
:1002C000A01AB10AC20AD30A41E9A41641E0B40651
:1002D000C104D10408F483C0608371838283938353
:1002E000FE01EF56FB4FA082B182C282D3820E94F0
:1002F0005E0BF701E157FB4F6083F701E955FB4FB8
:100300008081882341F0F701EE0FFF1FEF55FB4F6F
:100310001182108202C081E080838091A904882329
:10032000F1F0FE01E25CFD4F80819181A281B381F9
:100330004091990450919A0460919B0470919C049F
:10034000841B950BA60BB70B8D3D9540A105B10500
:1003500030F01092A9041092A6041092A504809186
:10036000420290914302A0914402B0914502409113
:100370003E0250913F026091400270914102841B05
:10038000950BA60BB70BB7FF07C0B095A09590953E
:1003900081959F4FAF4FBF4F8E359140A105B1055D
:1003A000F4F42091A5043091A6042F5F3F4F3093C1
:1003B000A6042093A504C25CDD4F88819981AA819F
:1003C000BB818093990490939A04A0939B04B0936B
:1003D0009C04233031051CF081E08093A904DF9157
:1003E000CF911F910F91FF90EF90DF90CF90BF9032
:1003F000AF9008958091AD04882319F080E00C94AB
:10040000440108958091AE04882319F081E00C9492
:1004100044010895CF93C0E040E06C2F86E492E061
:100420000E94C709CF5FC831B9F780E090E0FC01B6
:10043000E45BFD4F1082118212820396823222E029
:100440009207A9F7CF9108952F923F924F925F9212
:100450006F927F928F929F92AF92BF92CF92DF92D4
:10046000EF92FF920F931F93CF93DF9300D000D0B2
:10047000CDB7DEB78EE00E94600C21E0892B09F435
:1004800020E02093AD048FE00E94600C21E0892BD6
:1004900009F420E02093AE04211103C08091AD0443
:1004A00001C081E08093AC04882309F4B5C00E94A8
:1004B0005E0B60939D0470939E0480939F049093C1
:1004C000A00480910C01882361F00E940A0210921E
:1004D0000C01109208011092090110920A01109269
:1004E0000B018091AB048111B1C047EAE42E44E0D6
:1004F000F42E01EA14E05FE8A52E54E0B52E212C7D
:10050000C12CD12C312C6AEF862E99249A94D701D4
:100510008C91882309F469C0712CD801ED91FC916C
:10052000EF5EFE4F672D620D408186E492E00E94EF
:10053000C7097394BCE07B12F0CF8091A904882393
:10054000D1F02091A5043091A60423503109EFEF9A
:10055000E29FC001E39F900D11248B3FFFEF9F07A7
:1005600054F0811526E0920744F4B4010E94BD0CBA
:100570002FEF260F03C02FEF01C020E0412C512C9C
:10058000C601845B9D4F3C01D801ED91FC91EF5E6B
:10059000FE4F9081F5018081830D89832A839B839F
:1005A000B301640D751DCE0101962C830E94B00825
:1005B000F3E04F0E511C2C8141E1441641E05406FA
:1005C00019F720910701D8018D919C911197820F05
:1005D000911D11969C938E938F3F910534F01D923F
:1005E0001C92F70110820E940A02FFEFEF1AFF0A25
:1005F0000E5F1F4F2FEFA21AB20A4FE7340E8FEE95
:10060000C81A8EEFD80A9CE0290EAEEF3A127FCFBF
:1006100081E08093AB041AC080910C01811116C057
:100620000E945E0B00919D0410919E0420919F04F6
:100630003091A004601B710B820B930B6093080137
:100640007093090180930A0190930B018091080136
:1006500090910901A0910A01B0910B01803197425C
:10066000A105B10508F446C081E080930C0180919A
:10067000AB0481113FC000E010E0E0918C04E00F7A
:10068000F0E0EF5EFE4F4081612F86E492E00E9431
:10069000C7091F5F065F183181F780918C04909124
:1006A0000601890F80938C040CE412E0FF24FA9475
:1006B00080918D0490918E04969587959695879557
:1006C0008983FA82FB82B801CE0101960E94B008AC
:1006D0000D5F1F4FF4E00E361F0751F780918D0418
:1006E00090918E04019690938E0480938D0481E006
:1006F0008093AB048091AA04882371F086E492E091
:100700000E946E096091BE048EEB94E00E94850702
:100710001092AA041092AB040F900F900F900F90BC
:10072000DF91CF911F910F91FF90EF90DF90CF90CD
:10073000BF90AF909F908F907F906F905F904F9001
:100740003F902F9008959F92AF92BF92CF92DF92E9
:10075000EF92FF920F931F93CF93DF93EC01E88109
:10076000F98195B1926085B18D7F85B959852E81CA
:10077000D52ED21ADE82AF84AA81BB812C853D851D
:100780004E852F5F3F5F4F5FEF80F8849A84CB8563
:100790001081C12C0C2D6C2D7C2D7081112788941B
:1007A00071117D0D08F47FEFD194889420FD170F0F
:1007B0001795889421FD170F1795889422FD170F20
:1007C0001795889423FD170F1795889424FD170F0C
:1007D0001795889425FD170F1795889426FD170FF8
:1007E0001795889427FD170F17958894072F2111C7
:1007F000012FD50E102F002C95B900C017FF85B919
:1008000071810027889400C000C0002C85B9711147
:100810007E0D00C0002C95B900C016FF85B908F404
:100820007FEFE194889400C000C0002C85B930FDB2
:10083000070F00C0002C95B900C015FF85B90795BA
:10084000889431FD070F00C000C0002C85B90795C2
:10085000889400C0002C95B900C014FF85B932FD02
:10086000070F0795889400C000C0002C85B933FDA0
:10087000070F00C0002C95B900C013FF85B907957C
:10088000889434FD070F00C000C0002C85B907957F
:10089000889400C0002C95B900C012FF85B935FDC1
:1008A000070F0795889400C000C0002C85B936FD5D
:1008B000070F00C0002C95B900C011FF85B907953E
:1008C000889437FD070F00C000C0002C85B907953C
:1008D000889400C0002C95B900C010FF85B9172F6F
:1008E0003111102FE90C00C000C0002C85B900C0E8
:1008F00000C0002C95B900C017FF85B97281002790
:10090000889400C000C0002C85B971117F0D00C013
:10091000002C95B900C016FF85B908F47FEFEA0DE9
:10092000F11D00C000C0002C85B940FD070F00C0BC
:10093000002C95B900C015FF85B90795889441FD35
:10094000070F00C000C0002C85B90795889400C02F
:10095000002C95B900C014FF85B942FD070F07951B
:10096000889400C000C0002C85B943FD070F00C06B
:10097000002C95B900C013FF85B90795889444FDF4
:10098000070F00C000C0002C85B90795889400C0EF
:10099000002C95B900C012FF85B945FD070F0795DA
:1009A000889400C000C0002C85B946FD070F00C028
:1009B000002C95B900C011FF85B90795889447FDB3
:1009C000070F00C000C0002C85B90795889400C0AF
:1009D000002C95B900C010FF85B9172F4111102FB9
:1009E000F19400C000C0002C85B9FC0E00C000C00E
:1009F00095B900C017FF85B970810027889400C0A1
:100A000000C0002C85B971117D0D00C0002C95B976
:100A100000C016FF85B908F47FEFD194889400C018
:100A200000C0002C85B920FD070F00C0002C95B92F
:100A300000C015FF85B90795889421FD070F00C0F8
:100A400000C0002C85B90795889400C0002C95B98A
:100A500000C014FF85B922FD070F0795889400C0D8
:100A600000C0002C85B923FD070F00C0002C95B9EC
:100A700000C013FF85B90795889424FD070F00C0B7
:100A800000C0002C85B90795889400C0002C95B94A
:100A900000C012FF85B925FD070F0795889400C097
:100AA00000C0002C85B926FD070F00C0002C95B9A9
:100AB00000C011FF85B90795889427FD070F00C076
:100AC00000C0002C85B90795889400C0002C95B90A
:100AD00000C010FF85B9172F2111102FD50E00C0AF
:100AE00000C0002C85B9119709F086CEDF91CF9117
:100AF0001F910F91FF90EF90DF90CF90BF90AF903C
:100B00009F9008950F931F93CF93DF93EC018B0178
:100B10000E946A0B2F853889621B730B6A3071053E
:100B2000B8F3F894C8010E94A303F80142815381ED
:100B300020EE31E0DA010E94120DF4E096958795DF
:100B400077956795FA95D1F720E030E0EAE94E9F76
:100B5000212D5E9F200D311D1124620F731F811DF9
:100B6000911D693EF3E07F0781059105A8F1DC0145
:100B7000CB01885E9340A109B10972E0B695A795B3
:100B8000979587957A95D1F740E050E027E0829FCE
:100B9000412D929F400D511D11242091AF0430E052
:100BA000280F391F240F351F8091D2049091D30450
:100BB000A091D404B091D504432F5527840F951FDD
:100BC000A11DB11D8093D2049093D304A093D404AB
:100BD000B093D5042093AF0478940E946A0B788B6D
:100BE0006F87DF91CF911F910F910895FC01118ABA
:100BF000108A0895FF920F931F93CF93DF93EC0118
:100C0000809124028F5F982F97709093240280FD2B
:100C100002C080E001C080E891FD8064947009F01A
:100C20008062A0E1FA2EF80E20E030E000E011E052
:100C3000FE01E20FF31F6485662331F070E0C80106
:100C40000E94BD0C6F5F01C060E061874F2D469F21
:100C5000040E40E0411D1124411102C0168202C061
:100C600041504683662311F0615061872F5F3F4FEB
:100C700023303105E9F6DF91CF911F910F91FF905D
:100C80000895EF92FF920F931F93CF93DF93CDB709
:100C9000DEB762970FB6F894DEBF0FBECDBF8C01F2
:100CA0007A01F901DC011C968C917A8369835C835B
:100CB0004B835E834D8390819D8791819E87928136
:100CC0009F87813029F4CE0101960E94FA0506C063
:100CD0001C861B861A86198618861F82188AB701F9
:100CE000CE0101960E94F605D801ED91FC91048495
:100CF000F585E02DBE016F5F7F4FC80109956296B3
:100D00000FB6F894DEBF0FBECDBFDF91CF911F911C
:100D10000F91FF90EF900895EF92FF920F931F9322
:100D2000CF93DF93CDB7DEB762970FB6F894DEBFEF
:100D30000FBECDBF8C017A01F901DC011C968C91AC
:100D40007A8369835C834B835E834D8390819D8727
:100D500091819E8792819F87813029F4CE010196EF
:100D60000E94FA0506C01C861B861A8619861886FC
:100D70001F8283E0888BB701CE0101960E94F605A1
:100D8000D801ED91FC910484F585E02DBE016F5FE3
:100D90007F4FC801099562960FB6F894DEBF0FBE6B
:100DA000CDBFDF91CF911F910F91FF90EF900895EC
:100DB0000F930AE02BE04DE061E086E492E00E94B0
:100DC00053090F9108958F929F92AF92BF92EF9225
:100DD000FF920F931F93CF93DF93EC011882198238
:100DE0001A824423B9F1E0E0F0E08B010A5F1F4F63
:100DF0007B0189E0E80EF11C842E912CA12CB12CF2
:100E0000D801AE0FBF1F2C91D701AE0FBF1F6C9141
:100E10002223E1F06623D1F030E040E050E02F5F84
:100E20003F4F4F4F5F4F70E080E090E06F5F7F4F2C
:100E30008F4F9F4F0E94990C9B01AC01C501B401DB
:100E40000E94990CDE01AE0FBF1F8C933196E330E8
:100E5000F105B1F6CE01DF91CF911F910F91FF9077
:100E6000EF90BF90AF909F908F900895CF92DF92B8
:100E7000EF92FF92CF93DF93EC018091B4049091B5
:100E8000B5049C012F5F3F4F3093B5042093B40409
:100E9000861797079CF10E945E0B9B01AC01E091C5
:100EA000B404F091B50488EE93E0E89FB001E99FA7
:100EB000700DF89F700D1124882777FD8095982F6D
:100EC000C090B004D090B104E090B204F090B304AC
:100ED0002C193D094E095F090E94D10C3A832983E0
:100EE0001092B5041092B4040E945E0B6093B0049B
:100EF0007093B1048093B2049093B304DF91CF91C7
:100F0000FF90EF90DF90CF9008958F929F92AF92D5
:100F1000BF92EF92FF920F931F93CF93DF9300D076
:100F20001F92CDB7DEB78C01F62EF8018381948134
:100F3000A581B681892B8A2B8B2BD1F00E946A0B5D
:100F40008090B6049090B704A090B804B090B90413
:100F5000681979098A099B09D80113968D909D908B
:100F6000AD90BC901697681579058A059B05E8F247
:100F70000E946A0B6093B6047093B7048093B80420
:100F80009093B904D8011B96ED91FC911C97309772
:100F900051F0D80117964D915D916D917C911A9702
:100FA0008F2D0995F82EA090BC04B090BD04A1141B
:100FB000B10451F1F501E484D80111968D919C9111
:100FC00012978436910508F41486D501ED91FC91B1
:100FD000828093804F2DB501CE0101960E94E306D9
:100FE000F50145855685628173819E012F5F3F4FD4
:100FF000C501F4010995D5011C96EC921C97149635
:10100000AD90BC901597D3CF69E170E0C8010E9404
:1010100036070F900F900F90DF91CF911F910F9196
:10102000FF90EF90BF90AF909F908F900895CF92D8
:10103000DF92EF92FF920F931F93CF93DF93EC0118
:101040004423F1F06115710581F19B0140E050E00E
:1010500060E472E48FE090E00E94F30CCB80DC80CF
:10106000ED80FE8089019A010C151D052E053F05B6
:1010700010F4970186010B831C832D833E8315C0DA
:101080006115710571F09B0140E050E060E472E48D
:101090008FE090E00E94F30C2B833C834D835E83B2
:1010A00004C01B821C821D821E82DF91CF911F9182
:1010B0000F91FF90EF90DF90CF900895CF92DF9245
:1010C000EF92FF920F931F93CF93DF93EC016B018D
:1010D0008A017901121613061CF07A0100E010E073
:1010E000E881F9810480F581E02DCE010995C801E0
:1010F000880F991F800F911F8C0D9D1D9B838A83E4
:10110000FE86ED86E881F9810284F385E02DCE012B
:10111000099541E0BC018EEB94E00E941708CE01D6
:10112000DF91CF911F910F91FF90EF90DF90CF90C3
:1011300008958FEF8093BE041092C0041092BF04F4
:101140001092CA041092C9048FEF9FEFDC018093C4
:10115000C5049093C604A093C704B093C80408952F
:10116000FC01DB01408161817281242F2F71220FEC
:10117000220F220F522F35E5539F050E50E0511DCF
:101180001124352F942F9074842F807247FD1FC037
:1011900091110AC0811103C03095452F11C045E55A
:1011A000450F20E03BEA2FC081110CC03AEA239F93
:1011B000020E20E0211D11243BEA321B4AEA450FB2
:1011C00020E021C080E0452F4095252F0DC09111D2
:1011D00010C081110BC03AEA239F020E20E0211DAE
:1011E00011244BEA421B2B5A30E00DC0252F2095CD
:1011F00009C0811103C03B5A2BEA03C0365580E079
:1012000025E5251B40E06F3F09F423C06623F1F07C
:10121000332321F0369F030E30E0311D442321F0AB
:10122000469F040E40E0411D222321F0269F020E1E
:1012300020E0211D1124562F5095559F050E50E09A
:10124000511D1124350F450F250F03C02FEF4FEF10
:101250003FEF7F3F09F420C050E0772321F0779FD4
:10126000512D09F05F5F5523A1F0332321F0359F05
:10127000030E30E0311D442321F0459F040E40E071
:10128000411D222321F0259F020E20E0211D112463
:1012900003C020E040E030E03C9311964C9311975E
:1012A00012962C9308950F931F93CF93DF93EC0125
:1012B0006A834B832C830D8388E1689F800111240E
:1012C000C8010E94390D99838883A80160E070E00D
:1012D000DF91CF911F910F910C94600EEF92FF92CE
:1012E0000F931F93CF93DF93EC0160E08D810E94F9
:1012F0002A0C0A8188E1089F8001112401501109FC
:10130000A0F187E0E82EF12C60E08B810E942A0C8E
:10131000E881F981E00FF11F808190E00E2C02C07E
:10132000959587950A94E2F780FF02C061E001C0BD
:1013300060E08C810E942A0C61E08B810E942A0C63
:1013400081E0E81AF10800F760E08C810E942A0C25
:1013500094E0F92E60E08B810E942A0C61E08B8181
:101360000E942A0CFA94B1F7C9CF60E08B810E94E9
:101370002A0C61E08D810E942A0C60E08D81DF9152
:10138000CF911F910F91FF90EF900C942A0CDC01EC
:10139000ED91FC91E60FF11D40830895CF93DF930B
:1013A000EC0188819981892B91F061E08B810E9409
:1013B000F10B61E08C810E94F10B61E08D810E9454
:1013C000F10B60E08D810E942A0C81E001C080E079
:1013D000DF91CF9108951F920F920FB60F921124B3
:1013E0002F933F934F935F936F937F938F939F932D
:1013F000AF93BF93EF93FF93E091CF04F091D004AC
:101400000995FF91EF91BF91AF919F918F917F913E
:101410006F915F914F913F912F910F900FBE0F9061
:101420001F901895FC01A3E0440F551F661F771FFE
:10143000AA95D1F74115510581E06807710514F4AB
:1014400081E00EC033E075956795579547953A95BD
:10145000D1F74115510581E0680771051CF482E060
:10146000828331C023E075956795579547952A95F6
:10147000D1F74115510581E06807710514F483E047
:10148000EFCF92E075956795579547959A95D1F767
:101490004115510581E06807710514F484E0E0CF3F
:1014A00082E075956795579547958A95D1F785E0C0
:1014B00082834115510581E06807710524F04FEFE3
:1014C0005FEF60E070E08FB78383F89451834083CF
:1014D000509387004093860083818FBF8091810065
:1014E000887F80938100809181009281892B8093F5
:1014F000810008951092800020E1209381000C94D7
:10150000120AE1E8F0E02081DC0112968C91282B90
:10151000208308950F931F93CF93DF93EC018B01EA
:10152000BA01A901141615061606170614F40E942E
:10153000120A1D830C8381E080936F00CE01DF913E
:10154000CF911F910F910C94810A08958230E8F495
:10155000E82FF0E0EE0FFF1FE35FFE4F7183608323
:10156000813041F0809169008C7F842B80936900E9
:10157000E89A089580916900440F551F440F551F44
:10158000837F842B80936900E99A08951F920F92BC
:101590000FB60F9211242F933F934F935F936F9346
:1015A0007F938F939F93AF93BF93EF93FF93E091BC
:1015B0000D01F0910E010995FF91EF91BF91AF914F
:1015C0009F918F917F916F915F914F913F912F915B
:1015D0000F900FBE0F901F9018951F920F920FB68D
:1015E0000F9211242F933F934F935F936F937F93A9
:1015F0008F939F93AF93BF93EF93FF93E0910F016E
:10160000F09110010995FF91EF91BF91AF919F91DA
:101610008F917F916F915F914F913F912F910F909B
:101620000FBE0F901F9018951F920F920FB60F923A
:1016300011242F933F938F939F93AF93BF938091E8
:10164000D2049091D304A091D404B091D5043091E8
:10165000D10423E0230F2D3720F40196A11DB11DE5
:1016600005C026E8230F0296A11DB11D2093D104C9
:101670008093D2049093D304A093D404B093D50460
:101680008091D6049091D704A091D804B091D90448
:101690000196A11DB11D8093D6049093D704A09309
:1016A000D804B093D904BF91AF919F918F913F918E
:1016B0002F910F900FBE0F901F9018952FB7F89491
:1016C0006091D2047091D3048091D4049091D50498
:1016D0002FBF08953FB7F8948091D6049091D70416
:1016E000A091D804B091D90426B5A89B05C02F3F7E
:1016F00019F00196A11DB11D3FBF6627782F892FD4
:101700009A2F620F711D811D911D42E0660F771F98
:10171000881F991F4A95D1F70895789484B58260FF
:1017200084BD84B5816084BD85B5826085BD85B585
:10173000816085BDEEE6F0E0808181608083E1E834
:10174000F0E010828081826080838081816080836C
:10175000E0E8F0E0808181608083E1EBF0E080816F
:1017600084608083E0EBF0E0808181608083EAE741
:10177000F0E08081846080838081826080838081CA
:10178000816080838081806880831092C100089589
:10179000833081F028F4813099F08230A1F00895EF
:1017A0008730A9F08830B9F08430D1F4809180007E
:1017B0008F7D03C0809180008F7780938000089593
:1017C00084B58F7702C084B58F7D84BD08958091E4
:1017D000B0008F7703C08091B0008F7D8093B00000
:1017E0000895CF93DF9390E0FC01E458FF4F2491DC
:1017F000FC01E057FF4F8491882349F190E0880F66
:10180000991FFC01E854FF4FA591B49182559F4F59
:10181000FC01C591D4919FB7611108C0F8948C91D7
:10182000209582238C93888182230AC0623051F4F0
:10183000F8948C91322F309583238C938881822B5E
:10184000888304C0F8948C91822B8C939FBFDF9186
:10185000CF9108950F931F93CF93DF931F92CDB72E
:10186000DEB7282F30E0F901E859FF4F8491F901E4
:10187000E458FF4F1491F901E057FF4F0491002302
:10188000C9F0882321F069830E94C80B6981E02F89
:10189000F0E0EE0FFF1FE255FF4FA591B4919FB707
:1018A000F8948C91611103C01095812301C0812BA4
:1018B0008C939FBF0F90DF91CF911F910F9108954F
:1018C000CF93DF93282F30E0F901E859FF4F84913F
:1018D000F901E458FF4FD491F901E057FF4FC4914B
:1018E000CC2391F081110E94C80BEC2FF0E0EE0F99
:1018F000FF1FEC55FF4FA591B4912C912D2381E052
:1019000090E021F480E002C080E090E0DF91CF9190
:10191000089508950E948D0B0E94890C0E94BE00BC
:10192000C0E0D0E00E9424022097E1F30E94000072
:10193000F9CFDB018F939F930E94190DBF91AF9157
:10194000A29F800D911DA39F900DB29F900D112419
:101950000895AA1BBB1B51E107C0AA1FBB1FA617F6
:10196000B70710F0A61BB70B881F991F5A95A9F748
:1019700080959095BC01CD01089597FB072E16F434
:10198000009407D077FD09D00E94A90C07FC05D070
:101990003EF4909581959F4F0895709561957F4F86
:1019A0000895A1E21A2EAA1BBB1BFD010DC0AA1FA0
:1019B000BB1FEE1FFF1FA217B307E407F50720F0B8
:1019C000A21BB30BE40BF50B661F771F881F991F33
:1019D0001A9469F760957095809590959B01AC017C
:1019E000BD01CF010895052E97FB1EF400940E94BF
:1019F0000A0D57FD07D00E94D10C07FC03D04EF40E
:101A00000C940A0D50954095309521953F4F4F4FBE
:101A10005F4F089590958095709561957F4F8F4F9A
:101A20009F4F08950E942A0DB7FF0895821B930BC4
:101A300008950E942A0DA59F900DB49F900DA49F1C
:101A4000800D911D11240895EE0FFF1F0590F49154
:101A5000E02D0994A29FB001B39FC001A39F700D18
:101A6000811D1124911DB29F700D811D1124911DA6
:101A70000895CF93DF938230910510F482E090E0D7
:101A8000E091DC04F091DD0420E030E0A0E0B0E083
:101A9000309739F14081518148175907B8F04817FC
:101AA000590771F482819381109729F013969C93C2
:101AB0008E9312972CC09093DD048093DC0427C092
:101AC0002115310531F04217530718F0A901DB0148
:101AD00001C0EF019A01BD01DF010280F381E02D19
:101AE000D7CF21153105F9F0281B390B24303105EA
:101AF00080F48A819B816115710521F0FB0193833C
:101B0000828304C09093DD048093DC04FE0132964E
:101B100044C0FE01E20FF31F8193919322503109DB
:101B2000398328833AC02091DA043091DB04232BD7
:101B300041F420910201309103013093DB042093A2
:101B4000DA0420910001309101012115310541F4A1
:101B50002DB73EB74091040150910501241B350B70
:101B6000E091DA04F091DB04E217F307A0F42E1BF6
:101B70003F0B2817390778F0AC014E5F5F4F2417F1
:101B8000350748F04E0F5F1F5093DB044093DA0493
:101B90008193919302C0E0E0F0E0CF01DF91CF911B
:101BA0000895CF93DF93009709F487C0FC01329723
:101BB00013821282C091DC04D091DD04209781F45D
:101BC00020813181280F391F8091DA049091DB0444
:101BD0008217930779F5F093DB04E093DA046DC084
:101BE000DE0120E030E0AE17BF0750F412964D91B1
:101BF0005C9113979D014115510509F1DA01F3CF6D
:101C0000B383A28340815181840F951F8A179B075C
:101C100071F48D919C911197840F951F0296918379
:101C2000808312968D919C911397938382832115C3
:101C3000310529F4F093DD04E093DC043EC0D901C2
:101C40001396FC93EE9312974D915D91A40FB51FDF
:101C5000EA17FB0779F480819181840F951F029622
:101C6000D90111969C938E938281938113969C93B4
:101C70008E931297E0E0F0E08A819B81009719F043
:101C8000FE01EC01F9CFCE01029628813981820F45
:101C9000931F2091DA043091DB042817390769F487
:101CA000309729F41092DD041092DC0402C01382F4
:101CB0001282D093DB04C093DA04DF91CF910895B0
:101CC000DC0101C06D9341505040E0F70895F89455
:021CD000FFCF44
:101CD2000000DE04800003061027000001A50AA50B
:101CE2000A000007121D29343F4A55606B76808A2C
:101CF200949EA7B0B8C0C8CFD6DCE2E7ECF0F3F60A
:101D0200F9FBFCFDFEFEFEFDFCFAF9F7F4F2EFEC46
:101D1200E9E6E3DFDCD8D4D0CDC9C5C1BEBAB6B2DC
:101D2200AFABA8A4A19D9A9793908D8A8784817E58
:101D32007C797674716F6D6A686664615F5D5B5908
:101D420057565452504F4D4B4A48474544434140E1
:101D52003F3D3C3B3A3937363534333231302F2E22
:101D62002D2C2C2B2A2928272726252424232222FE
:101D72002120201F1E1E1D1D1C1C1B1B1A19191899
:101D82001817171716161515141414131312121206
:101D920011111010100F0F0F0E0E0E0D0D0D0D0C58
:101DA2000C0C0B0B0B0B0A0A0A0A09090909080891
:101DB20008080707070707060606060605050505BC
:101DC20005040404040404030303030303020202DC
:101DD20002020202010101010101010000000000F2
:101DE200000000000041068C06BC0091008D00B985
:041DF2000082050066
:00000001FF
